{
	"contracts/aula1_parte2/variaveis.sol": {
		"ExemploVariavel": {
			"abi": [
				{
					"inputs": [
						{
							"internalType": "uint8",
							"name": "_numero",
							"type": "uint8"
						}
					],
					"name": "inserirMaxUint",
					"outputs": [],
					"stateMutability": "nonpayable",
					"type": "function"
				},
				{
					"inputs": [
						{
							"internalType": "uint256",
							"name": "_numero",
							"type": "uint256"
						}
					],
					"name": "inserirNumero",
					"outputs": [],
					"stateMutability": "nonpayable",
					"type": "function"
				},
				{
					"inputs": [],
					"name": "maxPermit",
					"outputs": [
						{
							"internalType": "uint8",
							"name": "",
							"type": "uint8"
						}
					],
					"stateMutability": "view",
					"type": "function"
				},
				{
					"inputs": [],
					"name": "negativo",
					"outputs": [
						{
							"internalType": "int256",
							"name": "",
							"type": "int256"
						}
					],
					"stateMutability": "view",
					"type": "function"
				},
				{
					"inputs": [],
					"name": "numero",
					"outputs": [
						{
							"internalType": "uint256",
							"name": "",
							"type": "uint256"
						}
					],
					"stateMutability": "view",
					"type": "function"
				},
				{
					"inputs": [],
					"name": "numeroNegativo",
					"outputs": [
						{
							"internalType": "int256",
							"name": "",
							"type": "int256"
						}
					],
					"stateMutability": "view",
					"type": "function"
				},
				{
					"inputs": [],
					"name": "testLimit",
					"outputs": [
						{
							"internalType": "uint8",
							"name": "",
							"type": "uint8"
						}
					],
					"stateMutability": "view",
					"type": "function"
				},
				{
					"inputs": [
						{
							"internalType": "int256",
							"name": "_numero",
							"type": "int256"
						}
					],
					"name": "testNegativo",
					"outputs": [
						{
							"internalType": "int256",
							"name": "",
							"type": "int256"
						}
					],
					"stateMutability": "view",
					"type": "function"
				}
			],
			"devdoc": {
				"kind": "dev",
				"methods": {},
				"version": 1
			},
			"evm": {
				"assembly": "    /* \"contracts/aula1_parte2/variaveis.sol\":60:1625  contract ExemploVariavel {... */\n  mstore(0x40, 0x80)\n    /* \"contracts/aula1_parte2/variaveis.sol\":117:120  255 */\n  0xff\n    /* \"contracts/aula1_parte2/variaveis.sol\":92:120  uint8 public maxPermit = 255 */\n  0x00\n  dup1\n  0x0100\n  exp\n  dup2\n  sload\n  dup2\n  0xff\n  mul\n  not\n  and\n  swap1\n  dup4\n  0xff\n  and\n  mul\n  or\n  swap1\n  sstore\n  pop\n    /* \"contracts/aula1_parte2/variaveis.sol\":181:183  -1 */\n  0xffffffffffffffffffffffffffffffffffffffffffffffffffffffffffffffff\n    /* \"contracts/aula1_parte2/variaveis.sol\":156:183  int256 public negativo = -1 */\n  0x01\n  sstore\n    /* \"contracts/aula1_parte2/variaveis.sol\":60:1625  contract ExemploVariavel {... */\n  callvalue\n  dup1\n  iszero\n  tag_1\n  jumpi\n  0x00\n  dup1\n  revert\ntag_1:\n  pop\n  dataSize(sub_0)\n  dup1\n  dataOffset(sub_0)\n  0x00\n  codecopy\n  0x00\n  return\nstop\n\nsub_0: assembly {\n        /* \"contracts/aula1_parte2/variaveis.sol\":60:1625  contract ExemploVariavel {... */\n      mstore(0x40, 0x80)\n      callvalue\n      dup1\n      iszero\n      tag_1\n      jumpi\n      0x00\n      dup1\n      revert\n    tag_1:\n      pop\n      jumpi(tag_2, lt(calldatasize, 0x04))\n      shr(0xe0, calldataload(0x00))\n      dup1\n      0xbbd2b7c1\n      gt\n      tag_11\n      jumpi\n      dup1\n      0xbbd2b7c1\n      eq\n      tag_7\n      jumpi\n      dup1\n      0xda97736b\n      eq\n      tag_8\n      jumpi\n      dup1\n      0xedd8575b\n      eq\n      tag_9\n      jumpi\n      dup1\n      0xf06ecb3a\n      eq\n      tag_10\n      jumpi\n      jump(tag_2)\n    tag_11:\n      dup1\n      0x623b356f\n      eq\n      tag_3\n      jumpi\n      dup1\n      0x64017e2c\n      eq\n      tag_4\n      jumpi\n      dup1\n      0x91f5de38\n      eq\n      tag_5\n      jumpi\n      dup1\n      0xa0ba56dc\n      eq\n      tag_6\n      jumpi\n    tag_2:\n      0x00\n      dup1\n      revert\n        /* \"contracts/aula1_parte2/variaveis.sol\":218:246  int256 public numeroNegativo */\n    tag_3:\n      tag_12\n      tag_13\n      jump\t// in\n    tag_12:\n      mload(0x40)\n      tag_14\n      swap2\n      swap1\n      tag_15\n      jump\t// in\n    tag_14:\n      mload(0x40)\n      dup1\n      swap2\n      sub\n      swap1\n      return\n        /* \"contracts/aula1_parte2/variaveis.sol\":156:183  int256 public negativo = -1 */\n    tag_4:\n      tag_16\n      tag_17\n      jump\t// in\n    tag_16:\n      mload(0x40)\n      tag_18\n      swap2\n      swap1\n      tag_15\n      jump\t// in\n    tag_18:\n      mload(0x40)\n      dup1\n      swap2\n      sub\n      swap1\n      return\n        /* \"contracts/aula1_parte2/variaveis.sol\":190:211  uint256 public numero */\n    tag_5:\n      tag_19\n      tag_20\n      jump\t// in\n    tag_19:\n      mload(0x40)\n      tag_21\n      swap2\n      swap1\n      tag_22\n      jump\t// in\n    tag_21:\n      mload(0x40)\n      dup1\n      swap2\n      sub\n      swap1\n      return\n        /* \"contracts/aula1_parte2/variaveis.sol\":127:149  uint8 public testLimit */\n    tag_6:\n      tag_23\n      tag_24\n      jump\t// in\n    tag_23:\n      mload(0x40)\n      tag_25\n      swap2\n      swap1\n      tag_26\n      jump\t// in\n    tag_25:\n      mload(0x40)\n      dup1\n      swap2\n      sub\n      swap1\n      return\n        /* \"contracts/aula1_parte2/variaveis.sol\":1412:1622  function testNegativo(int256 _numero) external view returns(int256) {... */\n    tag_7:\n      tag_27\n      0x04\n      dup1\n      calldatasize\n      sub\n      dup2\n      add\n      swap1\n      tag_28\n      swap2\n      swap1\n      tag_29\n      jump\t// in\n    tag_28:\n      tag_30\n      jump\t// in\n    tag_27:\n      mload(0x40)\n      tag_31\n      swap2\n      swap1\n      tag_15\n      jump\t// in\n    tag_31:\n      mload(0x40)\n      dup1\n      swap2\n      sub\n      swap1\n      return\n        /* \"contracts/aula1_parte2/variaveis.sol\":433:517  function inserirNumero(uint256 _numero) external {... */\n    tag_8:\n      tag_32\n      0x04\n      dup1\n      calldatasize\n      sub\n      dup2\n      add\n      swap1\n      tag_33\n      swap2\n      swap1\n      tag_34\n      jump\t// in\n    tag_33:\n      tag_35\n      jump\t// in\n    tag_32:\n      stop\n        /* \"contracts/aula1_parte2/variaveis.sol\":339:425  function inserirMaxUint(uint8 _numero) external {... */\n    tag_9:\n      tag_36\n      0x04\n      dup1\n      calldatasize\n      sub\n      dup2\n      add\n      swap1\n      tag_37\n      swap2\n      swap1\n      tag_38\n      jump\t// in\n    tag_37:\n      tag_39\n      jump\t// in\n    tag_36:\n      stop\n        /* \"contracts/aula1_parte2/variaveis.sol\":92:120  uint8 public maxPermit = 255 */\n    tag_10:\n      tag_40\n      tag_41\n      jump\t// in\n    tag_40:\n      mload(0x40)\n      tag_42\n      swap2\n      swap1\n      tag_26\n      jump\t// in\n    tag_42:\n      mload(0x40)\n      dup1\n      swap2\n      sub\n      swap1\n      return\n        /* \"contracts/aula1_parte2/variaveis.sol\":218:246  int256 public numeroNegativo */\n    tag_13:\n      sload(0x03)\n      dup2\n      jump\t// out\n        /* \"contracts/aula1_parte2/variaveis.sol\":156:183  int256 public negativo = -1 */\n    tag_17:\n      sload(0x01)\n      dup2\n      jump\t// out\n        /* \"contracts/aula1_parte2/variaveis.sol\":190:211  uint256 public numero */\n    tag_20:\n      sload(0x02)\n      dup2\n      jump\t// out\n        /* \"contracts/aula1_parte2/variaveis.sol\":127:149  uint8 public testLimit */\n    tag_24:\n      0x00\n      0x01\n      swap1\n      sload\n      swap1\n      0x0100\n      exp\n      swap1\n      div\n      0xff\n      and\n      dup2\n      jump\t// out\n        /* \"contracts/aula1_parte2/variaveis.sol\":1412:1622  function testNegativo(int256 _numero) external view returns(int256) {... */\n    tag_30:\n        /* \"contracts/aula1_parte2/variaveis.sol\":1472:1478  int256 */\n      0x00\n        /* \"contracts/aula1_parte2/variaveis.sol\":1491:1509  int256 NumNegativo */\n      dup1\n        /* \"contracts/aula1_parte2/variaveis.sol\":1512:1519  _numero */\n      dup3\n        /* \"contracts/aula1_parte2/variaveis.sol\":1491:1519  int256 NumNegativo = _numero */\n      swap1\n      pop\n        /* \"contracts/aula1_parte2/variaveis.sol\":1530:1553  int256 somaDosNegativos */\n      0x00\n        /* \"contracts/aula1_parte2/variaveis.sol\":1567:1578  NumNegativo */\n      dup2\n        /* \"contracts/aula1_parte2/variaveis.sol\":1556:1564  negativo */\n      sload(0x01)\n        /* \"contracts/aula1_parte2/variaveis.sol\":1556:1578  negativo - NumNegativo */\n      tag_44\n      swap2\n      swap1\n      tag_45\n      jump\t// in\n    tag_44:\n        /* \"contracts/aula1_parte2/variaveis.sol\":1530:1578  int256 somaDosNegativos = negativo - NumNegativo */\n      swap1\n      pop\n        /* \"contracts/aula1_parte2/variaveis.sol\":1597:1613  somaDosNegativos */\n      dup1\n        /* \"contracts/aula1_parte2/variaveis.sol\":1589:1614  return (somaDosNegativos) */\n      swap3\n      pop\n      pop\n      pop\n        /* \"contracts/aula1_parte2/variaveis.sol\":1412:1622  function testNegativo(int256 _numero) external view returns(int256) {... */\n      swap2\n      swap1\n      pop\n      jump\t// out\n        /* \"contracts/aula1_parte2/variaveis.sol\":433:517  function inserirNumero(uint256 _numero) external {... */\n    tag_35:\n        /* \"contracts/aula1_parte2/variaveis.sol\":502:509  _numero */\n      dup1\n        /* \"contracts/aula1_parte2/variaveis.sol\":493:499  numero */\n      0x02\n        /* \"contracts/aula1_parte2/variaveis.sol\":493:509  numero = _numero */\n      dup2\n      swap1\n      sstore\n      pop\n        /* \"contracts/aula1_parte2/variaveis.sol\":433:517  function inserirNumero(uint256 _numero) external {... */\n      pop\n      jump\t// out\n        /* \"contracts/aula1_parte2/variaveis.sol\":339:425  function inserirMaxUint(uint8 _numero) external {... */\n    tag_39:\n        /* \"contracts/aula1_parte2/variaveis.sol\":410:417  _numero */\n      dup1\n        /* \"contracts/aula1_parte2/variaveis.sol\":398:407  testLimit */\n      0x00\n      0x01\n        /* \"contracts/aula1_parte2/variaveis.sol\":398:417  testLimit = _numero */\n      0x0100\n      exp\n      dup2\n      sload\n      dup2\n      0xff\n      mul\n      not\n      and\n      swap1\n      dup4\n      0xff\n      and\n      mul\n      or\n      swap1\n      sstore\n      pop\n        /* \"contracts/aula1_parte2/variaveis.sol\":339:425  function inserirMaxUint(uint8 _numero) external {... */\n      pop\n      jump\t// out\n        /* \"contracts/aula1_parte2/variaveis.sol\":92:120  uint8 public maxPermit = 255 */\n    tag_41:\n      0x00\n      dup1\n      sload\n      swap1\n      0x0100\n      exp\n      swap1\n      div\n      0xff\n      and\n      dup2\n      jump\t// out\n        /* \"#utility.yul\":7:83   */\n    tag_48:\n        /* \"#utility.yul\":43:50   */\n      0x00\n        /* \"#utility.yul\":72:77   */\n      dup2\n        /* \"#utility.yul\":61:77   */\n      swap1\n      pop\n        /* \"#utility.yul\":7:83   */\n      swap2\n      swap1\n      pop\n      jump\t// out\n        /* \"#utility.yul\":89:204   */\n    tag_49:\n        /* \"#utility.yul\":174:197   */\n      tag_67\n        /* \"#utility.yul\":191:196   */\n      dup2\n        /* \"#utility.yul\":174:197   */\n      tag_48\n      jump\t// in\n    tag_67:\n        /* \"#utility.yul\":169:172   */\n      dup3\n        /* \"#utility.yul\":162:198   */\n      mstore\n        /* \"#utility.yul\":89:204   */\n      pop\n      pop\n      jump\t// out\n        /* \"#utility.yul\":210:428   */\n    tag_15:\n        /* \"#utility.yul\":301:305   */\n      0x00\n        /* \"#utility.yul\":339:341   */\n      0x20\n        /* \"#utility.yul\":328:337   */\n      dup3\n        /* \"#utility.yul\":324:342   */\n      add\n        /* \"#utility.yul\":316:342   */\n      swap1\n      pop\n        /* \"#utility.yul\":352:421   */\n      tag_69\n        /* \"#utility.yul\":418:419   */\n      0x00\n        /* \"#utility.yul\":407:416   */\n      dup4\n        /* \"#utility.yul\":403:420   */\n      add\n        /* \"#utility.yul\":394:400   */\n      dup5\n        /* \"#utility.yul\":352:421   */\n      tag_49\n      jump\t// in\n    tag_69:\n        /* \"#utility.yul\":210:428   */\n      swap3\n      swap2\n      pop\n      pop\n      jump\t// out\n        /* \"#utility.yul\":434:511   */\n    tag_50:\n        /* \"#utility.yul\":471:478   */\n      0x00\n        /* \"#utility.yul\":500:505   */\n      dup2\n        /* \"#utility.yul\":489:505   */\n      swap1\n      pop\n        /* \"#utility.yul\":434:511   */\n      swap2\n      swap1\n      pop\n      jump\t// out\n        /* \"#utility.yul\":517:635   */\n    tag_51:\n        /* \"#utility.yul\":604:628   */\n      tag_72\n        /* \"#utility.yul\":622:627   */\n      dup2\n        /* \"#utility.yul\":604:628   */\n      tag_50\n      jump\t// in\n    tag_72:\n        /* \"#utility.yul\":599:602   */\n      dup3\n        /* \"#utility.yul\":592:629   */\n      mstore\n        /* \"#utility.yul\":517:635   */\n      pop\n      pop\n      jump\t// out\n        /* \"#utility.yul\":641:863   */\n    tag_22:\n        /* \"#utility.yul\":734:738   */\n      0x00\n        /* \"#utility.yul\":772:774   */\n      0x20\n        /* \"#utility.yul\":761:770   */\n      dup3\n        /* \"#utility.yul\":757:775   */\n      add\n        /* \"#utility.yul\":749:775   */\n      swap1\n      pop\n        /* \"#utility.yul\":785:856   */\n      tag_74\n        /* \"#utility.yul\":853:854   */\n      0x00\n        /* \"#utility.yul\":842:851   */\n      dup4\n        /* \"#utility.yul\":838:855   */\n      add\n        /* \"#utility.yul\":829:835   */\n      dup5\n        /* \"#utility.yul\":785:856   */\n      tag_51\n      jump\t// in\n    tag_74:\n        /* \"#utility.yul\":641:863   */\n      swap3\n      swap2\n      pop\n      pop\n      jump\t// out\n        /* \"#utility.yul\":869:955   */\n    tag_52:\n        /* \"#utility.yul\":904:911   */\n      0x00\n        /* \"#utility.yul\":944:948   */\n      0xff\n        /* \"#utility.yul\":937:942   */\n      dup3\n        /* \"#utility.yul\":933:949   */\n      and\n        /* \"#utility.yul\":922:949   */\n      swap1\n      pop\n        /* \"#utility.yul\":869:955   */\n      swap2\n      swap1\n      pop\n      jump\t// out\n        /* \"#utility.yul\":961:1073   */\n    tag_53:\n        /* \"#utility.yul\":1044:1066   */\n      tag_77\n        /* \"#utility.yul\":1060:1065   */\n      dup2\n        /* \"#utility.yul\":1044:1066   */\n      tag_52\n      jump\t// in\n    tag_77:\n        /* \"#utility.yul\":1039:1042   */\n      dup3\n        /* \"#utility.yul\":1032:1067   */\n      mstore\n        /* \"#utility.yul\":961:1073   */\n      pop\n      pop\n      jump\t// out\n        /* \"#utility.yul\":1079:1293   */\n    tag_26:\n        /* \"#utility.yul\":1168:1172   */\n      0x00\n        /* \"#utility.yul\":1206:1208   */\n      0x20\n        /* \"#utility.yul\":1195:1204   */\n      dup3\n        /* \"#utility.yul\":1191:1209   */\n      add\n        /* \"#utility.yul\":1183:1209   */\n      swap1\n      pop\n        /* \"#utility.yul\":1219:1286   */\n      tag_79\n        /* \"#utility.yul\":1283:1284   */\n      0x00\n        /* \"#utility.yul\":1272:1281   */\n      dup4\n        /* \"#utility.yul\":1268:1285   */\n      add\n        /* \"#utility.yul\":1259:1265   */\n      dup5\n        /* \"#utility.yul\":1219:1286   */\n      tag_53\n      jump\t// in\n    tag_79:\n        /* \"#utility.yul\":1079:1293   */\n      swap3\n      swap2\n      pop\n      pop\n      jump\t// out\n        /* \"#utility.yul\":1380:1497   */\n    tag_55:\n        /* \"#utility.yul\":1489:1490   */\n      0x00\n        /* \"#utility.yul\":1486:1487   */\n      dup1\n        /* \"#utility.yul\":1479:1491   */\n      revert\n        /* \"#utility.yul\":1626:1746   */\n    tag_57:\n        /* \"#utility.yul\":1698:1721   */\n      tag_84\n        /* \"#utility.yul\":1715:1720   */\n      dup2\n        /* \"#utility.yul\":1698:1721   */\n      tag_48\n      jump\t// in\n    tag_84:\n        /* \"#utility.yul\":1691:1696   */\n      dup2\n        /* \"#utility.yul\":1688:1722   */\n      eq\n        /* \"#utility.yul\":1678:1740   */\n      tag_85\n      jumpi\n        /* \"#utility.yul\":1736:1737   */\n      0x00\n        /* \"#utility.yul\":1733:1734   */\n      dup1\n        /* \"#utility.yul\":1726:1738   */\n      revert\n        /* \"#utility.yul\":1678:1740   */\n    tag_85:\n        /* \"#utility.yul\":1626:1746   */\n      pop\n      jump\t// out\n        /* \"#utility.yul\":1752:1889   */\n    tag_58:\n        /* \"#utility.yul\":1797:1802   */\n      0x00\n        /* \"#utility.yul\":1835:1841   */\n      dup2\n        /* \"#utility.yul\":1822:1842   */\n      calldataload\n        /* \"#utility.yul\":1813:1842   */\n      swap1\n      pop\n        /* \"#utility.yul\":1851:1883   */\n      tag_87\n        /* \"#utility.yul\":1877:1882   */\n      dup2\n        /* \"#utility.yul\":1851:1883   */\n      tag_57\n      jump\t// in\n    tag_87:\n        /* \"#utility.yul\":1752:1889   */\n      swap3\n      swap2\n      pop\n      pop\n      jump\t// out\n        /* \"#utility.yul\":1895:2222   */\n    tag_29:\n        /* \"#utility.yul\":1953:1959   */\n      0x00\n        /* \"#utility.yul\":2002:2004   */\n      0x20\n        /* \"#utility.yul\":1990:1999   */\n      dup3\n        /* \"#utility.yul\":1981:1988   */\n      dup5\n        /* \"#utility.yul\":1977:2000   */\n      sub\n        /* \"#utility.yul\":1973:2005   */\n      slt\n        /* \"#utility.yul\":1970:2089   */\n      iszero\n      tag_89\n      jumpi\n        /* \"#utility.yul\":2008:2087   */\n      tag_90\n      tag_55\n      jump\t// in\n    tag_90:\n        /* \"#utility.yul\":1970:2089   */\n    tag_89:\n        /* \"#utility.yul\":2128:2129   */\n      0x00\n        /* \"#utility.yul\":2153:2205   */\n      tag_91\n        /* \"#utility.yul\":2197:2204   */\n      dup5\n        /* \"#utility.yul\":2188:2194   */\n      dup3\n        /* \"#utility.yul\":2177:2186   */\n      dup6\n        /* \"#utility.yul\":2173:2195   */\n      add\n        /* \"#utility.yul\":2153:2205   */\n      tag_58\n      jump\t// in\n    tag_91:\n        /* \"#utility.yul\":2143:2205   */\n      swap2\n      pop\n        /* \"#utility.yul\":2099:2215   */\n      pop\n        /* \"#utility.yul\":1895:2222   */\n      swap3\n      swap2\n      pop\n      pop\n      jump\t// out\n        /* \"#utility.yul\":2228:2350   */\n    tag_59:\n        /* \"#utility.yul\":2301:2325   */\n      tag_93\n        /* \"#utility.yul\":2319:2324   */\n      dup2\n        /* \"#utility.yul\":2301:2325   */\n      tag_50\n      jump\t// in\n    tag_93:\n        /* \"#utility.yul\":2294:2299   */\n      dup2\n        /* \"#utility.yul\":2291:2326   */\n      eq\n        /* \"#utility.yul\":2281:2344   */\n      tag_94\n      jumpi\n        /* \"#utility.yul\":2340:2341   */\n      0x00\n        /* \"#utility.yul\":2337:2338   */\n      dup1\n        /* \"#utility.yul\":2330:2342   */\n      revert\n        /* \"#utility.yul\":2281:2344   */\n    tag_94:\n        /* \"#utility.yul\":2228:2350   */\n      pop\n      jump\t// out\n        /* \"#utility.yul\":2356:2495   */\n    tag_60:\n        /* \"#utility.yul\":2402:2407   */\n      0x00\n        /* \"#utility.yul\":2440:2446   */\n      dup2\n        /* \"#utility.yul\":2427:2447   */\n      calldataload\n        /* \"#utility.yul\":2418:2447   */\n      swap1\n      pop\n        /* \"#utility.yul\":2456:2489   */\n      tag_96\n        /* \"#utility.yul\":2483:2488   */\n      dup2\n        /* \"#utility.yul\":2456:2489   */\n      tag_59\n      jump\t// in\n    tag_96:\n        /* \"#utility.yul\":2356:2495   */\n      swap3\n      swap2\n      pop\n      pop\n      jump\t// out\n        /* \"#utility.yul\":2501:2830   */\n    tag_34:\n        /* \"#utility.yul\":2560:2566   */\n      0x00\n        /* \"#utility.yul\":2609:2611   */\n      0x20\n        /* \"#utility.yul\":2597:2606   */\n      dup3\n        /* \"#utility.yul\":2588:2595   */\n      dup5\n        /* \"#utility.yul\":2584:2607   */\n      sub\n        /* \"#utility.yul\":2580:2612   */\n      slt\n        /* \"#utility.yul\":2577:2696   */\n      iszero\n      tag_98\n      jumpi\n        /* \"#utility.yul\":2615:2694   */\n      tag_99\n      tag_55\n      jump\t// in\n    tag_99:\n        /* \"#utility.yul\":2577:2696   */\n    tag_98:\n        /* \"#utility.yul\":2735:2736   */\n      0x00\n        /* \"#utility.yul\":2760:2813   */\n      tag_100\n        /* \"#utility.yul\":2805:2812   */\n      dup5\n        /* \"#utility.yul\":2796:2802   */\n      dup3\n        /* \"#utility.yul\":2785:2794   */\n      dup6\n        /* \"#utility.yul\":2781:2803   */\n      add\n        /* \"#utility.yul\":2760:2813   */\n      tag_60\n      jump\t// in\n    tag_100:\n        /* \"#utility.yul\":2750:2813   */\n      swap2\n      pop\n        /* \"#utility.yul\":2706:2823   */\n      pop\n        /* \"#utility.yul\":2501:2830   */\n      swap3\n      swap2\n      pop\n      pop\n      jump\t// out\n        /* \"#utility.yul\":2836:2954   */\n    tag_61:\n        /* \"#utility.yul\":2907:2929   */\n      tag_102\n        /* \"#utility.yul\":2923:2928   */\n      dup2\n        /* \"#utility.yul\":2907:2929   */\n      tag_52\n      jump\t// in\n    tag_102:\n        /* \"#utility.yul\":2900:2905   */\n      dup2\n        /* \"#utility.yul\":2897:2930   */\n      eq\n        /* \"#utility.yul\":2887:2948   */\n      tag_103\n      jumpi\n        /* \"#utility.yul\":2944:2945   */\n      0x00\n        /* \"#utility.yul\":2941:2942   */\n      dup1\n        /* \"#utility.yul\":2934:2946   */\n      revert\n        /* \"#utility.yul\":2887:2948   */\n    tag_103:\n        /* \"#utility.yul\":2836:2954   */\n      pop\n      jump\t// out\n        /* \"#utility.yul\":2960:3095   */\n    tag_62:\n        /* \"#utility.yul\":3004:3009   */\n      0x00\n        /* \"#utility.yul\":3042:3048   */\n      dup2\n        /* \"#utility.yul\":3029:3049   */\n      calldataload\n        /* \"#utility.yul\":3020:3049   */\n      swap1\n      pop\n        /* \"#utility.yul\":3058:3089   */\n      tag_105\n        /* \"#utility.yul\":3083:3088   */\n      dup2\n        /* \"#utility.yul\":3058:3089   */\n      tag_61\n      jump\t// in\n    tag_105:\n        /* \"#utility.yul\":2960:3095   */\n      swap3\n      swap2\n      pop\n      pop\n      jump\t// out\n        /* \"#utility.yul\":3101:3426   */\n    tag_38:\n        /* \"#utility.yul\":3158:3164   */\n      0x00\n        /* \"#utility.yul\":3207:3209   */\n      0x20\n        /* \"#utility.yul\":3195:3204   */\n      dup3\n        /* \"#utility.yul\":3186:3193   */\n      dup5\n        /* \"#utility.yul\":3182:3205   */\n      sub\n        /* \"#utility.yul\":3178:3210   */\n      slt\n        /* \"#utility.yul\":3175:3294   */\n      iszero\n      tag_107\n      jumpi\n        /* \"#utility.yul\":3213:3292   */\n      tag_108\n      tag_55\n      jump\t// in\n    tag_108:\n        /* \"#utility.yul\":3175:3294   */\n    tag_107:\n        /* \"#utility.yul\":3333:3334   */\n      0x00\n        /* \"#utility.yul\":3358:3409   */\n      tag_109\n        /* \"#utility.yul\":3401:3408   */\n      dup5\n        /* \"#utility.yul\":3392:3398   */\n      dup3\n        /* \"#utility.yul\":3381:3390   */\n      dup6\n        /* \"#utility.yul\":3377:3399   */\n      add\n        /* \"#utility.yul\":3358:3409   */\n      tag_62\n      jump\t// in\n    tag_109:\n        /* \"#utility.yul\":3348:3409   */\n      swap2\n      pop\n        /* \"#utility.yul\":3304:3419   */\n      pop\n        /* \"#utility.yul\":3101:3426   */\n      swap3\n      swap2\n      pop\n      pop\n      jump\t// out\n        /* \"#utility.yul\":3432:3612   */\n    tag_63:\n        /* \"#utility.yul\":3480:3557   */\n      0x4e487b7100000000000000000000000000000000000000000000000000000000\n        /* \"#utility.yul\":3477:3478   */\n      0x00\n        /* \"#utility.yul\":3470:3558   */\n      mstore\n        /* \"#utility.yul\":3577:3581   */\n      0x11\n        /* \"#utility.yul\":3574:3575   */\n      0x04\n        /* \"#utility.yul\":3567:3582   */\n      mstore\n        /* \"#utility.yul\":3601:3605   */\n      0x24\n        /* \"#utility.yul\":3598:3599   */\n      0x00\n        /* \"#utility.yul\":3591:3606   */\n      revert\n        /* \"#utility.yul\":3618:3990   */\n    tag_45:\n        /* \"#utility.yul\":3657:3661   */\n      0x00\n        /* \"#utility.yul\":3677:3696   */\n      tag_112\n        /* \"#utility.yul\":3694:3695   */\n      dup3\n        /* \"#utility.yul\":3677:3696   */\n      tag_48\n      jump\t// in\n    tag_112:\n        /* \"#utility.yul\":3672:3696   */\n      swap2\n      pop\n        /* \"#utility.yul\":3710:3729   */\n      tag_113\n        /* \"#utility.yul\":3727:3728   */\n      dup4\n        /* \"#utility.yul\":3710:3729   */\n      tag_48\n      jump\t// in\n    tag_113:\n        /* \"#utility.yul\":3705:3729   */\n      swap3\n      pop\n        /* \"#utility.yul\":3753:3754   */\n      dup3\n        /* \"#utility.yul\":3750:3751   */\n      dup3\n        /* \"#utility.yul\":3746:3755   */\n      sub\n        /* \"#utility.yul\":3738:3755   */\n      swap1\n      pop\n        /* \"#utility.yul\":3947:3948   */\n      dup2\n        /* \"#utility.yul\":3941:3945   */\n      dup2\n        /* \"#utility.yul\":3937:3949   */\n      slt\n        /* \"#utility.yul\":3933:3934   */\n      0x00\n        /* \"#utility.yul\":3930:3931   */\n      dup5\n        /* \"#utility.yul\":3926:3935   */\n      slt\n        /* \"#utility.yul\":3922:3950   */\n      and\n        /* \"#utility.yul\":3905:3906   */\n      dup3\n        /* \"#utility.yul\":3899:3903   */\n      dup3\n        /* \"#utility.yul\":3895:3907   */\n      sgt\n        /* \"#utility.yul\":3890:3891   */\n      0x00\n        /* \"#utility.yul\":3887:3888   */\n      dup6\n        /* \"#utility.yul\":3883:3892   */\n      slt\n        /* \"#utility.yul\":3876:3893   */\n      iszero\n        /* \"#utility.yul\":3872:3908   */\n      and\n        /* \"#utility.yul\":3856:3960   */\n      or\n        /* \"#utility.yul\":3853:3983   */\n      iszero\n      tag_114\n      jumpi\n        /* \"#utility.yul\":3963:3981   */\n      tag_115\n      tag_63\n      jump\t// in\n    tag_115:\n        /* \"#utility.yul\":3853:3983   */\n    tag_114:\n        /* \"#utility.yul\":3618:3990   */\n      swap3\n      swap2\n      pop\n      pop\n      jump\t// out\n\n    auxdata: 0xa2646970667358221220141b7cdebac9e76bea8a1f6bbf6c292fbba71c7868d6cae008bfa115f2ed2abd64736f6c634300081a0033\n}\n",
				"bytecode": {
					"linkReferences": {},
					"object": "608060405260ff5f806101000a81548160ff021916908360ff1602179055507fffffffffffffffffffffffffffffffffffffffffffffffffffffffffffffffff600155348015604c575f80fd5b5061043f8061005a5f395ff3fe608060405234801561000f575f80fd5b5060043610610086575f3560e01c8063bbd2b7c111610059578063bbd2b7c114610102578063da97736b14610132578063edd8575b1461014e578063f06ecb3a1461016a57610086565b8063623b356f1461008a57806364017e2c146100a857806391f5de38146100c6578063a0ba56dc146100e4575b5f80fd5b610092610188565b60405161009f919061021b565b60405180910390f35b6100b061018e565b6040516100bd919061021b565b60405180910390f35b6100ce610194565b6040516100db919061024c565b60405180910390f35b6100ec61019a565b6040516100f99190610280565b60405180910390f35b61011c600480360381019061011791906102c7565b6101ac565b604051610129919061021b565b60405180910390f35b61014c6004803603810190610147919061031c565b6101cc565b005b61016860048036038101906101639190610371565b6101d6565b005b6101726101f3565b60405161017f9190610280565b60405180910390f35b60035481565b60015481565b60025481565b5f60019054906101000a900460ff1681565b5f808290505f816001546101c091906103c9565b90508092505050919050565b8060028190555050565b805f60016101000a81548160ff021916908360ff16021790555050565b5f8054906101000a900460ff1681565b5f819050919050565b61021581610203565b82525050565b5f60208201905061022e5f83018461020c565b92915050565b5f819050919050565b61024681610234565b82525050565b5f60208201905061025f5f83018461023d565b92915050565b5f60ff82169050919050565b61027a81610265565b82525050565b5f6020820190506102935f830184610271565b92915050565b5f80fd5b6102a681610203565b81146102b0575f80fd5b50565b5f813590506102c18161029d565b92915050565b5f602082840312156102dc576102db610299565b5b5f6102e9848285016102b3565b91505092915050565b6102fb81610234565b8114610305575f80fd5b50565b5f81359050610316816102f2565b92915050565b5f6020828403121561033157610330610299565b5b5f61033e84828501610308565b91505092915050565b61035081610265565b811461035a575f80fd5b50565b5f8135905061036b81610347565b92915050565b5f6020828403121561038657610385610299565b5b5f6103938482850161035d565b91505092915050565b7f4e487b71000000000000000000000000000000000000000000000000000000005f52601160045260245ffd5b5f6103d382610203565b91506103de83610203565b925082820390508181125f8412168282135f8512151617156104035761040261039c565b5b9291505056fea2646970667358221220141b7cdebac9e76bea8a1f6bbf6c292fbba71c7868d6cae008bfa115f2ed2abd64736f6c634300081a0033",
					"opcodes": "PUSH1 0x80 PUSH1 0x40 MSTORE PUSH1 0xFF PUSH0 DUP1 PUSH2 0x100 EXP DUP2 SLOAD DUP2 PUSH1 0xFF MUL NOT AND SWAP1 DUP4 PUSH1 0xFF AND MUL OR SWAP1 SSTORE POP PUSH32 0xFFFFFFFFFFFFFFFFFFFFFFFFFFFFFFFFFFFFFFFFFFFFFFFFFFFFFFFFFFFFFFFF PUSH1 0x1 SSTORE CALLVALUE DUP1 ISZERO PUSH1 0x4C JUMPI PUSH0 DUP1 REVERT JUMPDEST POP PUSH2 0x43F DUP1 PUSH2 0x5A PUSH0 CODECOPY PUSH0 RETURN INVALID PUSH1 0x80 PUSH1 0x40 MSTORE CALLVALUE DUP1 ISZERO PUSH2 0xF JUMPI PUSH0 DUP1 REVERT JUMPDEST POP PUSH1 0x4 CALLDATASIZE LT PUSH2 0x86 JUMPI PUSH0 CALLDATALOAD PUSH1 0xE0 SHR DUP1 PUSH4 0xBBD2B7C1 GT PUSH2 0x59 JUMPI DUP1 PUSH4 0xBBD2B7C1 EQ PUSH2 0x102 JUMPI DUP1 PUSH4 0xDA97736B EQ PUSH2 0x132 JUMPI DUP1 PUSH4 0xEDD8575B EQ PUSH2 0x14E JUMPI DUP1 PUSH4 0xF06ECB3A EQ PUSH2 0x16A JUMPI PUSH2 0x86 JUMP JUMPDEST DUP1 PUSH4 0x623B356F EQ PUSH2 0x8A JUMPI DUP1 PUSH4 0x64017E2C EQ PUSH2 0xA8 JUMPI DUP1 PUSH4 0x91F5DE38 EQ PUSH2 0xC6 JUMPI DUP1 PUSH4 0xA0BA56DC EQ PUSH2 0xE4 JUMPI JUMPDEST PUSH0 DUP1 REVERT JUMPDEST PUSH2 0x92 PUSH2 0x188 JUMP JUMPDEST PUSH1 0x40 MLOAD PUSH2 0x9F SWAP2 SWAP1 PUSH2 0x21B JUMP JUMPDEST PUSH1 0x40 MLOAD DUP1 SWAP2 SUB SWAP1 RETURN JUMPDEST PUSH2 0xB0 PUSH2 0x18E JUMP JUMPDEST PUSH1 0x40 MLOAD PUSH2 0xBD SWAP2 SWAP1 PUSH2 0x21B JUMP JUMPDEST PUSH1 0x40 MLOAD DUP1 SWAP2 SUB SWAP1 RETURN JUMPDEST PUSH2 0xCE PUSH2 0x194 JUMP JUMPDEST PUSH1 0x40 MLOAD PUSH2 0xDB SWAP2 SWAP1 PUSH2 0x24C JUMP JUMPDEST PUSH1 0x40 MLOAD DUP1 SWAP2 SUB SWAP1 RETURN JUMPDEST PUSH2 0xEC PUSH2 0x19A JUMP JUMPDEST PUSH1 0x40 MLOAD PUSH2 0xF9 SWAP2 SWAP1 PUSH2 0x280 JUMP JUMPDEST PUSH1 0x40 MLOAD DUP1 SWAP2 SUB SWAP1 RETURN JUMPDEST PUSH2 0x11C PUSH1 0x4 DUP1 CALLDATASIZE SUB DUP2 ADD SWAP1 PUSH2 0x117 SWAP2 SWAP1 PUSH2 0x2C7 JUMP JUMPDEST PUSH2 0x1AC JUMP JUMPDEST PUSH1 0x40 MLOAD PUSH2 0x129 SWAP2 SWAP1 PUSH2 0x21B JUMP JUMPDEST PUSH1 0x40 MLOAD DUP1 SWAP2 SUB SWAP1 RETURN JUMPDEST PUSH2 0x14C PUSH1 0x4 DUP1 CALLDATASIZE SUB DUP2 ADD SWAP1 PUSH2 0x147 SWAP2 SWAP1 PUSH2 0x31C JUMP JUMPDEST PUSH2 0x1CC JUMP JUMPDEST STOP JUMPDEST PUSH2 0x168 PUSH1 0x4 DUP1 CALLDATASIZE SUB DUP2 ADD SWAP1 PUSH2 0x163 SWAP2 SWAP1 PUSH2 0x371 JUMP JUMPDEST PUSH2 0x1D6 JUMP JUMPDEST STOP JUMPDEST PUSH2 0x172 PUSH2 0x1F3 JUMP JUMPDEST PUSH1 0x40 MLOAD PUSH2 0x17F SWAP2 SWAP1 PUSH2 0x280 JUMP JUMPDEST PUSH1 0x40 MLOAD DUP1 SWAP2 SUB SWAP1 RETURN JUMPDEST PUSH1 0x3 SLOAD DUP2 JUMP JUMPDEST PUSH1 0x1 SLOAD DUP2 JUMP JUMPDEST PUSH1 0x2 SLOAD DUP2 JUMP JUMPDEST PUSH0 PUSH1 0x1 SWAP1 SLOAD SWAP1 PUSH2 0x100 EXP SWAP1 DIV PUSH1 0xFF AND DUP2 JUMP JUMPDEST PUSH0 DUP1 DUP3 SWAP1 POP PUSH0 DUP2 PUSH1 0x1 SLOAD PUSH2 0x1C0 SWAP2 SWAP1 PUSH2 0x3C9 JUMP JUMPDEST SWAP1 POP DUP1 SWAP3 POP POP POP SWAP2 SWAP1 POP JUMP JUMPDEST DUP1 PUSH1 0x2 DUP2 SWAP1 SSTORE POP POP JUMP JUMPDEST DUP1 PUSH0 PUSH1 0x1 PUSH2 0x100 EXP DUP2 SLOAD DUP2 PUSH1 0xFF MUL NOT AND SWAP1 DUP4 PUSH1 0xFF AND MUL OR SWAP1 SSTORE POP POP JUMP JUMPDEST PUSH0 DUP1 SLOAD SWAP1 PUSH2 0x100 EXP SWAP1 DIV PUSH1 0xFF AND DUP2 JUMP JUMPDEST PUSH0 DUP2 SWAP1 POP SWAP2 SWAP1 POP JUMP JUMPDEST PUSH2 0x215 DUP2 PUSH2 0x203 JUMP JUMPDEST DUP3 MSTORE POP POP JUMP JUMPDEST PUSH0 PUSH1 0x20 DUP3 ADD SWAP1 POP PUSH2 0x22E PUSH0 DUP4 ADD DUP5 PUSH2 0x20C JUMP JUMPDEST SWAP3 SWAP2 POP POP JUMP JUMPDEST PUSH0 DUP2 SWAP1 POP SWAP2 SWAP1 POP JUMP JUMPDEST PUSH2 0x246 DUP2 PUSH2 0x234 JUMP JUMPDEST DUP3 MSTORE POP POP JUMP JUMPDEST PUSH0 PUSH1 0x20 DUP3 ADD SWAP1 POP PUSH2 0x25F PUSH0 DUP4 ADD DUP5 PUSH2 0x23D JUMP JUMPDEST SWAP3 SWAP2 POP POP JUMP JUMPDEST PUSH0 PUSH1 0xFF DUP3 AND SWAP1 POP SWAP2 SWAP1 POP JUMP JUMPDEST PUSH2 0x27A DUP2 PUSH2 0x265 JUMP JUMPDEST DUP3 MSTORE POP POP JUMP JUMPDEST PUSH0 PUSH1 0x20 DUP3 ADD SWAP1 POP PUSH2 0x293 PUSH0 DUP4 ADD DUP5 PUSH2 0x271 JUMP JUMPDEST SWAP3 SWAP2 POP POP JUMP JUMPDEST PUSH0 DUP1 REVERT JUMPDEST PUSH2 0x2A6 DUP2 PUSH2 0x203 JUMP JUMPDEST DUP2 EQ PUSH2 0x2B0 JUMPI PUSH0 DUP1 REVERT JUMPDEST POP JUMP JUMPDEST PUSH0 DUP2 CALLDATALOAD SWAP1 POP PUSH2 0x2C1 DUP2 PUSH2 0x29D JUMP JUMPDEST SWAP3 SWAP2 POP POP JUMP JUMPDEST PUSH0 PUSH1 0x20 DUP3 DUP5 SUB SLT ISZERO PUSH2 0x2DC JUMPI PUSH2 0x2DB PUSH2 0x299 JUMP JUMPDEST JUMPDEST PUSH0 PUSH2 0x2E9 DUP5 DUP3 DUP6 ADD PUSH2 0x2B3 JUMP JUMPDEST SWAP2 POP POP SWAP3 SWAP2 POP POP JUMP JUMPDEST PUSH2 0x2FB DUP2 PUSH2 0x234 JUMP JUMPDEST DUP2 EQ PUSH2 0x305 JUMPI PUSH0 DUP1 REVERT JUMPDEST POP JUMP JUMPDEST PUSH0 DUP2 CALLDATALOAD SWAP1 POP PUSH2 0x316 DUP2 PUSH2 0x2F2 JUMP JUMPDEST SWAP3 SWAP2 POP POP JUMP JUMPDEST PUSH0 PUSH1 0x20 DUP3 DUP5 SUB SLT ISZERO PUSH2 0x331 JUMPI PUSH2 0x330 PUSH2 0x299 JUMP JUMPDEST JUMPDEST PUSH0 PUSH2 0x33E DUP5 DUP3 DUP6 ADD PUSH2 0x308 JUMP JUMPDEST SWAP2 POP POP SWAP3 SWAP2 POP POP JUMP JUMPDEST PUSH2 0x350 DUP2 PUSH2 0x265 JUMP JUMPDEST DUP2 EQ PUSH2 0x35A JUMPI PUSH0 DUP1 REVERT JUMPDEST POP JUMP JUMPDEST PUSH0 DUP2 CALLDATALOAD SWAP1 POP PUSH2 0x36B DUP2 PUSH2 0x347 JUMP JUMPDEST SWAP3 SWAP2 POP POP JUMP JUMPDEST PUSH0 PUSH1 0x20 DUP3 DUP5 SUB SLT ISZERO PUSH2 0x386 JUMPI PUSH2 0x385 PUSH2 0x299 JUMP JUMPDEST JUMPDEST PUSH0 PUSH2 0x393 DUP5 DUP3 DUP6 ADD PUSH2 0x35D JUMP JUMPDEST SWAP2 POP POP SWAP3 SWAP2 POP POP JUMP JUMPDEST PUSH32 0x4E487B7100000000000000000000000000000000000000000000000000000000 PUSH0 MSTORE PUSH1 0x11 PUSH1 0x4 MSTORE PUSH1 0x24 PUSH0 REVERT JUMPDEST PUSH0 PUSH2 0x3D3 DUP3 PUSH2 0x203 JUMP JUMPDEST SWAP2 POP PUSH2 0x3DE DUP4 PUSH2 0x203 JUMP JUMPDEST SWAP3 POP DUP3 DUP3 SUB SWAP1 POP DUP2 DUP2 SLT PUSH0 DUP5 SLT AND DUP3 DUP3 SGT PUSH0 DUP6 SLT ISZERO AND OR ISZERO PUSH2 0x403 JUMPI PUSH2 0x402 PUSH2 0x39C JUMP JUMPDEST JUMPDEST SWAP3 SWAP2 POP POP JUMP INVALID LOG2 PUSH5 0x6970667358 0x22 SLT KECCAK256 EQ SHL PUSH29 0xDEBAC9E76BEA8A1F6BBF6C292FBBA71C7868D6CAE008BFA115F2ED2ABD PUSH5 0x736F6C6343 STOP ADDMOD BYTE STOP CALLER "
				},
				"gasEstimates": {
					"creation": {
						"codeDepositCost": "217400",
						"executionCost": "46627",
						"totalCost": "264027"
					},
					"external": {
						"inserirMaxUint(uint8)": "24767",
						"inserirNumero(uint256)": "22537",
						"maxPermit()": "2529",
						"negativo()": "2448",
						"numero()": "2470",
						"numeroNegativo()": "2426",
						"testLimit()": "2583",
						"testNegativo(int256)": "infinite"
					}
				},
				"methodIdentifiers": {
					"inserirMaxUint(uint8)": "edd8575b",
					"inserirNumero(uint256)": "da97736b",
					"maxPermit()": "f06ecb3a",
					"negativo()": "64017e2c",
					"numero()": "91f5de38",
					"numeroNegativo()": "623b356f",
					"testLimit()": "a0ba56dc",
					"testNegativo(int256)": "bbd2b7c1"
				}
			},
			"storageLayout": {
				"storage": [
					{
						"astId": 4,
						"contract": "contracts/aula1_parte2/variaveis.sol:ExemploVariavel",
						"label": "maxPermit",
						"offset": 0,
						"slot": "0",
						"type": "t_uint8"
					},
					{
						"astId": 6,
						"contract": "contracts/aula1_parte2/variaveis.sol:ExemploVariavel",
						"label": "testLimit",
						"offset": 1,
						"slot": "0",
						"type": "t_uint8"
					},
					{
						"astId": 10,
						"contract": "contracts/aula1_parte2/variaveis.sol:ExemploVariavel",
						"label": "negativo",
						"offset": 0,
						"slot": "1",
						"type": "t_int256"
					},
					{
						"astId": 12,
						"contract": "contracts/aula1_parte2/variaveis.sol:ExemploVariavel",
						"label": "numero",
						"offset": 0,
						"slot": "2",
						"type": "t_uint256"
					},
					{
						"astId": 14,
						"contract": "contracts/aula1_parte2/variaveis.sol:ExemploVariavel",
						"label": "numeroNegativo",
						"offset": 0,
						"slot": "3",
						"type": "t_int256"
					}
				],
				"types": {
					"t_int256": {
						"encoding": "inplace",
						"label": "int256",
						"numberOfBytes": "32"
					},
					"t_uint256": {
						"encoding": "inplace",
						"label": "uint256",
						"numberOfBytes": "32"
					},
					"t_uint8": {
						"encoding": "inplace",
						"label": "uint8",
						"numberOfBytes": "1"
					}
				}
			},
			"userdoc": {
				"kind": "user",
				"methods": {},
				"version": 1
			}
		}
	}
}