{
	"contracts/aula1_parte2/variaveis_p2.sol": {
		"ExemploVariavelP2": {
			"abi": [
				{
					"inputs": [],
					"name": "MeusBytes",
					"outputs": [
						{
							"internalType": "bytes",
							"name": "",
							"type": "bytes"
						}
					],
					"stateMutability": "view",
					"type": "function"
				},
				{
					"inputs": [
						{
							"internalType": "address",
							"name": "_endereco",
							"type": "address"
						}
					],
					"name": "RegistrarEndereco",
					"outputs": [],
					"stateMutability": "nonpayable",
					"type": "function"
				},
				{
					"inputs": [
						{
							"internalType": "bytes",
							"name": "_dados",
							"type": "bytes"
						}
					],
					"name": "armazenarDados",
					"outputs": [],
					"stateMutability": "nonpayable",
					"type": "function"
				},
				{
					"inputs": [],
					"name": "contaRegistrada",
					"outputs": [
						{
							"internalType": "address",
							"name": "",
							"type": "address"
						}
					],
					"stateMutability": "view",
					"type": "function"
				},
				{
					"inputs": [
						{
							"internalType": "string",
							"name": "_minhafrase",
							"type": "string"
						}
					],
					"name": "convertStringBytes",
					"outputs": [
						{
							"internalType": "bytes32",
							"name": "",
							"type": "bytes32"
						}
					],
					"stateMutability": "pure",
					"type": "function"
				},
				{
					"inputs": [
						{
							"internalType": "bool",
							"name": "_change",
							"type": "bool"
						}
					],
					"name": "mudarPermissao",
					"outputs": [],
					"stateMutability": "nonpayable",
					"type": "function"
				},
				{
					"inputs": [],
					"name": "nome",
					"outputs": [
						{
							"internalType": "string",
							"name": "",
							"type": "string"
						}
					],
					"stateMutability": "view",
					"type": "function"
				},
				{
					"inputs": [],
					"name": "obterTamanhoDados",
					"outputs": [
						{
							"internalType": "uint256",
							"name": "",
							"type": "uint256"
						}
					],
					"stateMutability": "view",
					"type": "function"
				},
				{
					"inputs": [
						{
							"internalType": "string",
							"name": "_meunome",
							"type": "string"
						}
					],
					"name": "registrarMeuEndereco",
					"outputs": [],
					"stateMutability": "nonpayable",
					"type": "function"
				}
			],
			"devdoc": {
				"kind": "dev",
				"methods": {},
				"version": 1
			},
			"evm": {
				"assembly": "    /* \"contracts/aula1_parte2/variaveis_p2.sol\":60:2431  contract ExemploVariavelP2 {... */\n  mstore(0x40, 0x80)\n  callvalue\n  dup1\n  iszero\n  tag_1\n  jumpi\n  0x00\n  dup1\n  revert\ntag_1:\n  pop\n  dataSize(sub_0)\n  dup1\n  dataOffset(sub_0)\n  0x00\n  codecopy\n  0x00\n  return\nstop\n\nsub_0: assembly {\n        /* \"contracts/aula1_parte2/variaveis_p2.sol\":60:2431  contract ExemploVariavelP2 {... */\n      mstore(0x40, 0x80)\n      callvalue\n      dup1\n      iszero\n      tag_1\n      jumpi\n      0x00\n      dup1\n      revert\n    tag_1:\n      pop\n      jumpi(tag_2, lt(calldatasize, 0x04))\n      shr(0xe0, calldataload(0x00))\n      dup1\n      0x63595b71\n      gt\n      tag_12\n      jumpi\n      dup1\n      0x63595b71\n      eq\n      tag_7\n      jumpi\n      dup1\n      0x82c1a7d1\n      eq\n      tag_8\n      jumpi\n      dup1\n      0x9371fdc5\n      eq\n      tag_9\n      jumpi\n      dup1\n      0xb02b6e4b\n      eq\n      tag_10\n      jumpi\n      dup1\n      0xe36b5fb5\n      eq\n      tag_11\n      jumpi\n      jump(tag_2)\n    tag_12:\n      dup1\n      0x2deb124b\n      eq\n      tag_3\n      jumpi\n      dup1\n      0x45f55744\n      eq\n      tag_4\n      jumpi\n      dup1\n      0x482aff21\n      eq\n      tag_5\n      jumpi\n      dup1\n      0x5fc94c9a\n      eq\n      tag_6\n      jumpi\n    tag_2:\n      0x00\n      dup1\n      revert\n        /* \"contracts/aula1_parte2/variaveis_p2.sol\":152:170  string public nome */\n    tag_3:\n      tag_13\n      tag_14\n      jump\t// in\n    tag_13:\n      mload(0x40)\n      tag_15\n      swap2\n      swap1\n      tag_16\n      jump\t// in\n    tag_15:\n      mload(0x40)\n      dup1\n      swap2\n      sub\n      swap1\n      return\n        /* \"contracts/aula1_parte2/variaveis_p2.sol\":1305:1394  function armazenarDados(bytes memory _dados) public {... */\n    tag_4:\n      tag_17\n      0x04\n      dup1\n      calldatasize\n      sub\n      dup2\n      add\n      swap1\n      tag_18\n      swap2\n      swap1\n      tag_19\n      jump\t// in\n    tag_18:\n      tag_20\n      jump\t// in\n    tag_17:\n      stop\n        /* \"contracts/aula1_parte2/variaveis_p2.sol\":2137:2319  function convertStringBytes(string memory _minhafrase) external pure returns (bytes32) {... */\n    tag_5:\n      tag_21\n      0x04\n      dup1\n      calldatasize\n      sub\n      dup2\n      add\n      swap1\n      tag_22\n      swap2\n      swap1\n      tag_23\n      jump\t// in\n    tag_22:\n      tag_24\n      jump\t// in\n    tag_21:\n      mload(0x40)\n      tag_25\n      swap2\n      swap1\n      tag_26\n      jump\t// in\n    tag_25:\n      mload(0x40)\n      dup1\n      swap2\n      sub\n      swap1\n      return\n        /* \"contracts/aula1_parte2/variaveis_p2.sol\":208:293  function mudarPermissao(bool _change) external {... */\n    tag_6:\n      tag_27\n      0x04\n      dup1\n      calldatasize\n      sub\n      dup2\n      add\n      swap1\n      tag_28\n      swap2\n      swap1\n      tag_29\n      jump\t// in\n    tag_28:\n      tag_30\n      jump\t// in\n    tag_27:\n      stop\n        /* \"contracts/aula1_parte2/variaveis_p2.sol\":301:402  function RegistrarEndereco(address _endereco) external {... */\n    tag_7:\n      tag_31\n      0x04\n      dup1\n      calldatasize\n      sub\n      dup2\n      add\n      swap1\n      tag_32\n      swap2\n      swap1\n      tag_33\n      jump\t// in\n    tag_32:\n      tag_34\n      jump\t// in\n    tag_31:\n      stop\n        /* \"contracts/aula1_parte2/variaveis_p2.sol\":177:199  bytes public MeusBytes */\n    tag_8:\n      tag_35\n      tag_36\n      jump\t// in\n    tag_35:\n      mload(0x40)\n      tag_37\n      swap2\n      swap1\n      tag_38\n      jump\t// in\n    tag_37:\n      mload(0x40)\n      dup1\n      swap2\n      sub\n      swap1\n      return\n        /* \"contracts/aula1_parte2/variaveis_p2.sol\":115:145  address public contaRegistrada */\n    tag_9:\n      tag_39\n      tag_40\n      jump\t// in\n    tag_39:\n      mload(0x40)\n      tag_41\n      swap2\n      swap1\n      tag_42\n      jump\t// in\n    tag_41:\n      mload(0x40)\n      dup1\n      swap2\n      sub\n      swap1\n      return\n        /* \"contracts/aula1_parte2/variaveis_p2.sol\":1161:1297  function registrarMeuEndereco(string memory _meunome) external {... */\n    tag_10:\n      tag_43\n      0x04\n      dup1\n      calldatasize\n      sub\n      dup2\n      add\n      swap1\n      tag_44\n      swap2\n      swap1\n      tag_23\n      jump\t// in\n    tag_44:\n      tag_45\n      jump\t// in\n    tag_43:\n      stop\n        /* \"contracts/aula1_parte2/variaveis_p2.sol\":2327:2428  function obterTamanhoDados() public view returns (uint256) {... */\n    tag_11:\n      tag_46\n      tag_47\n      jump\t// in\n    tag_46:\n      mload(0x40)\n      tag_48\n      swap2\n      swap1\n      tag_49\n      jump\t// in\n    tag_48:\n      mload(0x40)\n      dup1\n      swap2\n      sub\n      swap1\n      return\n        /* \"contracts/aula1_parte2/variaveis_p2.sol\":152:170  string public nome */\n    tag_14:\n      0x01\n      dup1\n      sload\n      tag_50\n      swap1\n      tag_51\n      jump\t// in\n    tag_50:\n      dup1\n      0x1f\n      add\n      0x20\n      dup1\n      swap2\n      div\n      mul\n      0x20\n      add\n      mload(0x40)\n      swap1\n      dup2\n      add\n      0x40\n      mstore\n      dup1\n      swap3\n      swap2\n      swap1\n      dup2\n      dup2\n      mstore\n      0x20\n      add\n      dup3\n      dup1\n      sload\n      tag_52\n      swap1\n      tag_51\n      jump\t// in\n    tag_52:\n      dup1\n      iszero\n      tag_53\n      jumpi\n      dup1\n      0x1f\n      lt\n      tag_54\n      jumpi\n      0x0100\n      dup1\n      dup4\n      sload\n      div\n      mul\n      dup4\n      mstore\n      swap2\n      0x20\n      add\n      swap2\n      jump(tag_53)\n    tag_54:\n      dup3\n      add\n      swap2\n      swap1\n      0x00\n      mstore\n      keccak256(0x00, 0x20)\n      swap1\n    tag_55:\n      dup2\n      sload\n      dup2\n      mstore\n      swap1\n      0x01\n      add\n      swap1\n      0x20\n      add\n      dup1\n      dup4\n      gt\n      tag_55\n      jumpi\n      dup3\n      swap1\n      sub\n      0x1f\n      and\n      dup3\n      add\n      swap2\n    tag_53:\n      pop\n      pop\n      pop\n      pop\n      pop\n      dup2\n      jump\t// out\n        /* \"contracts/aula1_parte2/variaveis_p2.sol\":1305:1394  function armazenarDados(bytes memory _dados) public {... */\n    tag_20:\n        /* \"contracts/aula1_parte2/variaveis_p2.sol\":1380:1386  _dados */\n      dup1\n        /* \"contracts/aula1_parte2/variaveis_p2.sol\":1368:1377  MeusBytes */\n      0x02\n        /* \"contracts/aula1_parte2/variaveis_p2.sol\":1368:1386  MeusBytes = _dados */\n      swap1\n      dup2\n      tag_57\n      swap2\n      swap1\n      tag_58\n      jump\t// in\n    tag_57:\n      pop\n        /* \"contracts/aula1_parte2/variaveis_p2.sol\":1305:1394  function armazenarDados(bytes memory _dados) public {... */\n      pop\n      jump\t// out\n        /* \"contracts/aula1_parte2/variaveis_p2.sol\":2137:2319  function convertStringBytes(string memory _minhafrase) external pure returns (bytes32) {... */\n    tag_24:\n        /* \"contracts/aula1_parte2/variaveis_p2.sol\":2215:2222  bytes32 */\n      0x00\n        /* \"contracts/aula1_parte2/variaveis_p2.sol\":2235:2253  bytes32 minhafrase */\n      dup1\n        /* \"contracts/aula1_parte2/variaveis_p2.sol\":2270:2281  _minhafrase */\n      dup3\n        /* \"contracts/aula1_parte2/variaveis_p2.sol\":2256:2283  bytes32(bytes(_minhafrase)) */\n      tag_60\n      swap1\n      tag_61\n      jump\t// in\n    tag_60:\n        /* \"contracts/aula1_parte2/variaveis_p2.sol\":2235:2283  bytes32 minhafrase = bytes32(bytes(_minhafrase)) */\n      swap1\n      pop\n        /* \"contracts/aula1_parte2/variaveis_p2.sol\":2301:2311  minhafrase */\n      dup1\n        /* \"contracts/aula1_parte2/variaveis_p2.sol\":2294:2311  return minhafrase */\n      swap2\n      pop\n      pop\n        /* \"contracts/aula1_parte2/variaveis_p2.sol\":2137:2319  function convertStringBytes(string memory _minhafrase) external pure returns (bytes32) {... */\n      swap2\n      swap1\n      pop\n      jump\t// out\n        /* \"contracts/aula1_parte2/variaveis_p2.sol\":208:293  function mudarPermissao(bool _change) external {... */\n    tag_30:\n        /* \"contracts/aula1_parte2/variaveis_p2.sol\":278:285  _change */\n      dup1\n        /* \"contracts/aula1_parte2/variaveis_p2.sol\":266:275  permissao */\n      0x00\n      dup1\n        /* \"contracts/aula1_parte2/variaveis_p2.sol\":266:285  permissao = _change */\n      0x0100\n      exp\n      dup2\n      sload\n      dup2\n      0xff\n      mul\n      not\n      and\n      swap1\n      dup4\n      iszero\n      iszero\n      mul\n      or\n      swap1\n      sstore\n      pop\n        /* \"contracts/aula1_parte2/variaveis_p2.sol\":208:293  function mudarPermissao(bool _change) external {... */\n      pop\n      jump\t// out\n        /* \"contracts/aula1_parte2/variaveis_p2.sol\":301:402  function RegistrarEndereco(address _endereco) external {... */\n    tag_34:\n        /* \"contracts/aula1_parte2/variaveis_p2.sol\":385:394  _endereco */\n      dup1\n        /* \"contracts/aula1_parte2/variaveis_p2.sol\":367:382  contaRegistrada */\n      0x00\n      0x01\n        /* \"contracts/aula1_parte2/variaveis_p2.sol\":367:394  contaRegistrada = _endereco */\n      0x0100\n      exp\n      dup2\n      sload\n      dup2\n      0xffffffffffffffffffffffffffffffffffffffff\n      mul\n      not\n      and\n      swap1\n      dup4\n      0xffffffffffffffffffffffffffffffffffffffff\n      and\n      mul\n      or\n      swap1\n      sstore\n      pop\n        /* \"contracts/aula1_parte2/variaveis_p2.sol\":301:402  function RegistrarEndereco(address _endereco) external {... */\n      pop\n      jump\t// out\n        /* \"contracts/aula1_parte2/variaveis_p2.sol\":177:199  bytes public MeusBytes */\n    tag_36:\n      0x02\n      dup1\n      sload\n      tag_64\n      swap1\n      tag_51\n      jump\t// in\n    tag_64:\n      dup1\n      0x1f\n      add\n      0x20\n      dup1\n      swap2\n      div\n      mul\n      0x20\n      add\n      mload(0x40)\n      swap1\n      dup2\n      add\n      0x40\n      mstore\n      dup1\n      swap3\n      swap2\n      swap1\n      dup2\n      dup2\n      mstore\n      0x20\n      add\n      dup3\n      dup1\n      sload\n      tag_65\n      swap1\n      tag_51\n      jump\t// in\n    tag_65:\n      dup1\n      iszero\n      tag_66\n      jumpi\n      dup1\n      0x1f\n      lt\n      tag_67\n      jumpi\n      0x0100\n      dup1\n      dup4\n      sload\n      div\n      mul\n      dup4\n      mstore\n      swap2\n      0x20\n      add\n      swap2\n      jump(tag_66)\n    tag_67:\n      dup3\n      add\n      swap2\n      swap1\n      0x00\n      mstore\n      keccak256(0x00, 0x20)\n      swap1\n    tag_68:\n      dup2\n      sload\n      dup2\n      mstore\n      swap1\n      0x01\n      add\n      swap1\n      0x20\n      add\n      dup1\n      dup4\n      gt\n      tag_68\n      jumpi\n      dup3\n      swap1\n      sub\n      0x1f\n      and\n      dup3\n      add\n      swap2\n    tag_66:\n      pop\n      pop\n      pop\n      pop\n      pop\n      dup2\n      jump\t// out\n        /* \"contracts/aula1_parte2/variaveis_p2.sol\":115:145  address public contaRegistrada */\n    tag_40:\n      0x00\n      0x01\n      swap1\n      sload\n      swap1\n      0x0100\n      exp\n      swap1\n      div\n      0xffffffffffffffffffffffffffffffffffffffff\n      and\n      dup2\n      jump\t// out\n        /* \"contracts/aula1_parte2/variaveis_p2.sol\":1161:1297  function registrarMeuEndereco(string memory _meunome) external {... */\n    tag_45:\n        /* \"contracts/aula1_parte2/variaveis_p2.sol\":1253:1263  msg.sender */\n      caller\n        /* \"contracts/aula1_parte2/variaveis_p2.sol\":1235:1250  contaRegistrada */\n      0x00\n      0x01\n        /* \"contracts/aula1_parte2/variaveis_p2.sol\":1235:1263  contaRegistrada = msg.sender */\n      0x0100\n      exp\n      dup2\n      sload\n      dup2\n      0xffffffffffffffffffffffffffffffffffffffff\n      mul\n      not\n      and\n      swap1\n      dup4\n      0xffffffffffffffffffffffffffffffffffffffff\n      and\n      mul\n      or\n      swap1\n      sstore\n      pop\n        /* \"contracts/aula1_parte2/variaveis_p2.sol\":1281:1289  _meunome */\n      dup1\n        /* \"contracts/aula1_parte2/variaveis_p2.sol\":1274:1278  nome */\n      0x01\n        /* \"contracts/aula1_parte2/variaveis_p2.sol\":1274:1289  nome = _meunome */\n      swap1\n      dup2\n      tag_70\n      swap2\n      swap1\n      tag_71\n      jump\t// in\n    tag_70:\n      pop\n        /* \"contracts/aula1_parte2/variaveis_p2.sol\":1161:1297  function registrarMeuEndereco(string memory _meunome) external {... */\n      pop\n      jump\t// out\n        /* \"contracts/aula1_parte2/variaveis_p2.sol\":2327:2428  function obterTamanhoDados() public view returns (uint256) {... */\n    tag_47:\n        /* \"contracts/aula1_parte2/variaveis_p2.sol\":2377:2384  uint256 */\n      0x00\n        /* \"contracts/aula1_parte2/variaveis_p2.sol\":2404:2413  MeusBytes */\n      0x02\n        /* \"contracts/aula1_parte2/variaveis_p2.sol\":2404:2420  MeusBytes.length */\n      dup1\n      sload\n      tag_73\n      swap1\n      tag_51\n      jump\t// in\n    tag_73:\n      swap1\n      pop\n        /* \"contracts/aula1_parte2/variaveis_p2.sol\":2397:2420  return MeusBytes.length */\n      swap1\n      pop\n        /* \"contracts/aula1_parte2/variaveis_p2.sol\":2327:2428  function obterTamanhoDados() public view returns (uint256) {... */\n      swap1\n      jump\t// out\n        /* \"#utility.yul\":7:106   */\n    tag_74:\n        /* \"#utility.yul\":59:65   */\n      0x00\n        /* \"#utility.yul\":93:98   */\n      dup2\n        /* \"#utility.yul\":87:99   */\n      mload\n        /* \"#utility.yul\":77:99   */\n      swap1\n      pop\n        /* \"#utility.yul\":7:106   */\n      swap2\n      swap1\n      pop\n      jump\t// out\n        /* \"#utility.yul\":112:281   */\n    tag_75:\n        /* \"#utility.yul\":196:207   */\n      0x00\n        /* \"#utility.yul\":230:236   */\n      dup3\n        /* \"#utility.yul\":225:228   */\n      dup3\n        /* \"#utility.yul\":218:237   */\n      mstore\n        /* \"#utility.yul\":270:274   */\n      0x20\n        /* \"#utility.yul\":265:268   */\n      dup3\n        /* \"#utility.yul\":261:275   */\n      add\n        /* \"#utility.yul\":246:275   */\n      swap1\n      pop\n        /* \"#utility.yul\":112:281   */\n      swap3\n      swap2\n      pop\n      pop\n      jump\t// out\n        /* \"#utility.yul\":287:426   */\n    tag_76:\n        /* \"#utility.yul\":376:382   */\n      dup3\n        /* \"#utility.yul\":371:374   */\n      dup2\n        /* \"#utility.yul\":366:369   */\n      dup4\n        /* \"#utility.yul\":360:383   */\n      mcopy\n        /* \"#utility.yul\":417:418   */\n      0x00\n        /* \"#utility.yul\":408:414   */\n      dup4\n        /* \"#utility.yul\":403:406   */\n      dup4\n        /* \"#utility.yul\":399:415   */\n      add\n        /* \"#utility.yul\":392:419   */\n      mstore\n        /* \"#utility.yul\":287:426   */\n      pop\n      pop\n      pop\n      jump\t// out\n        /* \"#utility.yul\":432:534   */\n    tag_77:\n        /* \"#utility.yul\":473:479   */\n      0x00\n        /* \"#utility.yul\":524:526   */\n      0x1f\n        /* \"#utility.yul\":520:527   */\n      not\n        /* \"#utility.yul\":515:517   */\n      0x1f\n        /* \"#utility.yul\":508:513   */\n      dup4\n        /* \"#utility.yul\":504:518   */\n      add\n        /* \"#utility.yul\":500:528   */\n      and\n        /* \"#utility.yul\":490:528   */\n      swap1\n      pop\n        /* \"#utility.yul\":432:534   */\n      swap2\n      swap1\n      pop\n      jump\t// out\n        /* \"#utility.yul\":540:917   */\n    tag_78:\n        /* \"#utility.yul\":628:631   */\n      0x00\n        /* \"#utility.yul\":656:695   */\n      tag_135\n        /* \"#utility.yul\":689:694   */\n      dup3\n        /* \"#utility.yul\":656:695   */\n      tag_74\n      jump\t// in\n    tag_135:\n        /* \"#utility.yul\":711:782   */\n      tag_136\n        /* \"#utility.yul\":775:781   */\n      dup2\n        /* \"#utility.yul\":770:773   */\n      dup6\n        /* \"#utility.yul\":711:782   */\n      tag_75\n      jump\t// in\n    tag_136:\n        /* \"#utility.yul\":704:782   */\n      swap4\n      pop\n        /* \"#utility.yul\":791:856   */\n      tag_137\n        /* \"#utility.yul\":849:855   */\n      dup2\n        /* \"#utility.yul\":844:847   */\n      dup6\n        /* \"#utility.yul\":837:841   */\n      0x20\n        /* \"#utility.yul\":830:835   */\n      dup7\n        /* \"#utility.yul\":826:842   */\n      add\n        /* \"#utility.yul\":791:856   */\n      tag_76\n      jump\t// in\n    tag_137:\n        /* \"#utility.yul\":881:910   */\n      tag_138\n        /* \"#utility.yul\":903:909   */\n      dup2\n        /* \"#utility.yul\":881:910   */\n      tag_77\n      jump\t// in\n    tag_138:\n        /* \"#utility.yul\":876:879   */\n      dup5\n        /* \"#utility.yul\":872:911   */\n      add\n        /* \"#utility.yul\":865:911   */\n      swap2\n      pop\n        /* \"#utility.yul\":632:917   */\n      pop\n        /* \"#utility.yul\":540:917   */\n      swap3\n      swap2\n      pop\n      pop\n      jump\t// out\n        /* \"#utility.yul\":923:1236   */\n    tag_16:\n        /* \"#utility.yul\":1036:1040   */\n      0x00\n        /* \"#utility.yul\":1074:1076   */\n      0x20\n        /* \"#utility.yul\":1063:1072   */\n      dup3\n        /* \"#utility.yul\":1059:1077   */\n      add\n        /* \"#utility.yul\":1051:1077   */\n      swap1\n      pop\n        /* \"#utility.yul\":1123:1132   */\n      dup2\n        /* \"#utility.yul\":1117:1121   */\n      dup2\n        /* \"#utility.yul\":1113:1133   */\n      sub\n        /* \"#utility.yul\":1109:1110   */\n      0x00\n        /* \"#utility.yul\":1098:1107   */\n      dup4\n        /* \"#utility.yul\":1094:1111   */\n      add\n        /* \"#utility.yul\":1087:1134   */\n      mstore\n        /* \"#utility.yul\":1151:1229   */\n      tag_140\n        /* \"#utility.yul\":1224:1228   */\n      dup2\n        /* \"#utility.yul\":1215:1221   */\n      dup5\n        /* \"#utility.yul\":1151:1229   */\n      tag_78\n      jump\t// in\n    tag_140:\n        /* \"#utility.yul\":1143:1229   */\n      swap1\n      pop\n        /* \"#utility.yul\":923:1236   */\n      swap3\n      swap2\n      pop\n      pop\n      jump\t// out\n        /* \"#utility.yul\":1242:1317   */\n    tag_79:\n        /* \"#utility.yul\":1275:1281   */\n      0x00\n        /* \"#utility.yul\":1308:1310   */\n      0x40\n        /* \"#utility.yul\":1302:1311   */\n      mload\n        /* \"#utility.yul\":1292:1311   */\n      swap1\n      pop\n        /* \"#utility.yul\":1242:1317   */\n      swap1\n      jump\t// out\n        /* \"#utility.yul\":1323:1440   */\n    tag_80:\n        /* \"#utility.yul\":1432:1433   */\n      0x00\n        /* \"#utility.yul\":1429:1430   */\n      dup1\n        /* \"#utility.yul\":1422:1434   */\n      revert\n        /* \"#utility.yul\":1446:1563   */\n    tag_81:\n        /* \"#utility.yul\":1555:1556   */\n      0x00\n        /* \"#utility.yul\":1552:1553   */\n      dup1\n        /* \"#utility.yul\":1545:1557   */\n      revert\n        /* \"#utility.yul\":1569:1686   */\n    tag_82:\n        /* \"#utility.yul\":1678:1679   */\n      0x00\n        /* \"#utility.yul\":1675:1676   */\n      dup1\n        /* \"#utility.yul\":1668:1680   */\n      revert\n        /* \"#utility.yul\":1692:1809   */\n    tag_83:\n        /* \"#utility.yul\":1801:1802   */\n      0x00\n        /* \"#utility.yul\":1798:1799   */\n      dup1\n        /* \"#utility.yul\":1791:1803   */\n      revert\n        /* \"#utility.yul\":1815:1995   */\n    tag_84:\n        /* \"#utility.yul\":1863:1940   */\n      0x4e487b7100000000000000000000000000000000000000000000000000000000\n        /* \"#utility.yul\":1860:1861   */\n      0x00\n        /* \"#utility.yul\":1853:1941   */\n      mstore\n        /* \"#utility.yul\":1960:1964   */\n      0x41\n        /* \"#utility.yul\":1957:1958   */\n      0x04\n        /* \"#utility.yul\":1950:1965   */\n      mstore\n        /* \"#utility.yul\":1984:1988   */\n      0x24\n        /* \"#utility.yul\":1981:1982   */\n      0x00\n        /* \"#utility.yul\":1974:1989   */\n      revert\n        /* \"#utility.yul\":2001:2282   */\n    tag_85:\n        /* \"#utility.yul\":2084:2111   */\n      tag_148\n        /* \"#utility.yul\":2106:2110   */\n      dup3\n        /* \"#utility.yul\":2084:2111   */\n      tag_77\n      jump\t// in\n    tag_148:\n        /* \"#utility.yul\":2076:2082   */\n      dup2\n        /* \"#utility.yul\":2072:2112   */\n      add\n        /* \"#utility.yul\":2214:2220   */\n      dup2\n        /* \"#utility.yul\":2202:2212   */\n      dup2\n        /* \"#utility.yul\":2199:2221   */\n      lt\n        /* \"#utility.yul\":2178:2196   */\n      0xffffffffffffffff\n        /* \"#utility.yul\":2166:2176   */\n      dup3\n        /* \"#utility.yul\":2163:2197   */\n      gt\n        /* \"#utility.yul\":2160:2222   */\n      or\n        /* \"#utility.yul\":2157:2245   */\n      iszero\n      tag_149\n      jumpi\n        /* \"#utility.yul\":2225:2243   */\n      tag_150\n      tag_84\n      jump\t// in\n    tag_150:\n        /* \"#utility.yul\":2157:2245   */\n    tag_149:\n        /* \"#utility.yul\":2265:2275   */\n      dup1\n        /* \"#utility.yul\":2261:2263   */\n      0x40\n        /* \"#utility.yul\":2254:2276   */\n      mstore\n        /* \"#utility.yul\":2044:2282   */\n      pop\n        /* \"#utility.yul\":2001:2282   */\n      pop\n      pop\n      jump\t// out\n        /* \"#utility.yul\":2288:2417   */\n    tag_86:\n        /* \"#utility.yul\":2322:2328   */\n      0x00\n        /* \"#utility.yul\":2349:2369   */\n      tag_152\n      tag_79\n      jump\t// in\n    tag_152:\n        /* \"#utility.yul\":2339:2369   */\n      swap1\n      pop\n        /* \"#utility.yul\":2378:2411   */\n      tag_153\n        /* \"#utility.yul\":2406:2410   */\n      dup3\n        /* \"#utility.yul\":2398:2404   */\n      dup3\n        /* \"#utility.yul\":2378:2411   */\n      tag_85\n      jump\t// in\n    tag_153:\n        /* \"#utility.yul\":2288:2417   */\n      swap2\n      swap1\n      pop\n      jump\t// out\n        /* \"#utility.yul\":2423:2730   */\n    tag_87:\n        /* \"#utility.yul\":2484:2488   */\n      0x00\n        /* \"#utility.yul\":2574:2592   */\n      0xffffffffffffffff\n        /* \"#utility.yul\":2566:2572   */\n      dup3\n        /* \"#utility.yul\":2563:2593   */\n      gt\n        /* \"#utility.yul\":2560:2616   */\n      iszero\n      tag_155\n      jumpi\n        /* \"#utility.yul\":2596:2614   */\n      tag_156\n      tag_84\n      jump\t// in\n    tag_156:\n        /* \"#utility.yul\":2560:2616   */\n    tag_155:\n        /* \"#utility.yul\":2634:2663   */\n      tag_157\n        /* \"#utility.yul\":2656:2662   */\n      dup3\n        /* \"#utility.yul\":2634:2663   */\n      tag_77\n      jump\t// in\n    tag_157:\n        /* \"#utility.yul\":2626:2663   */\n      swap1\n      pop\n        /* \"#utility.yul\":2718:2722   */\n      0x20\n        /* \"#utility.yul\":2712:2716   */\n      dup2\n        /* \"#utility.yul\":2708:2723   */\n      add\n        /* \"#utility.yul\":2700:2723   */\n      swap1\n      pop\n        /* \"#utility.yul\":2423:2730   */\n      swap2\n      swap1\n      pop\n      jump\t// out\n        /* \"#utility.yul\":2736:2884   */\n    tag_88:\n        /* \"#utility.yul\":2834:2840   */\n      dup3\n        /* \"#utility.yul\":2829:2832   */\n      dup2\n        /* \"#utility.yul\":2824:2827   */\n      dup4\n        /* \"#utility.yul\":2811:2841   */\n      calldatacopy\n        /* \"#utility.yul\":2875:2876   */\n      0x00\n        /* \"#utility.yul\":2866:2872   */\n      dup4\n        /* \"#utility.yul\":2861:2864   */\n      dup4\n        /* \"#utility.yul\":2857:2873   */\n      add\n        /* \"#utility.yul\":2850:2877   */\n      mstore\n        /* \"#utility.yul\":2736:2884   */\n      pop\n      pop\n      pop\n      jump\t// out\n        /* \"#utility.yul\":2890:3313   */\n    tag_89:\n        /* \"#utility.yul\":2967:2972   */\n      0x00\n        /* \"#utility.yul\":2992:3057   */\n      tag_160\n        /* \"#utility.yul\":3008:3056   */\n      tag_161\n        /* \"#utility.yul\":3049:3055   */\n      dup5\n        /* \"#utility.yul\":3008:3056   */\n      tag_87\n      jump\t// in\n    tag_161:\n        /* \"#utility.yul\":2992:3057   */\n      tag_86\n      jump\t// in\n    tag_160:\n        /* \"#utility.yul\":2983:3057   */\n      swap1\n      pop\n        /* \"#utility.yul\":3080:3086   */\n      dup3\n        /* \"#utility.yul\":3073:3078   */\n      dup2\n        /* \"#utility.yul\":3066:3087   */\n      mstore\n        /* \"#utility.yul\":3118:3122   */\n      0x20\n        /* \"#utility.yul\":3111:3116   */\n      dup2\n        /* \"#utility.yul\":3107:3123   */\n      add\n        /* \"#utility.yul\":3156:3159   */\n      dup5\n        /* \"#utility.yul\":3147:3153   */\n      dup5\n        /* \"#utility.yul\":3142:3145   */\n      dup5\n        /* \"#utility.yul\":3138:3154   */\n      add\n        /* \"#utility.yul\":3135:3160   */\n      gt\n        /* \"#utility.yul\":3132:3244   */\n      iszero\n      tag_162\n      jumpi\n        /* \"#utility.yul\":3163:3242   */\n      tag_163\n      tag_83\n      jump\t// in\n    tag_163:\n        /* \"#utility.yul\":3132:3244   */\n    tag_162:\n        /* \"#utility.yul\":3253:3307   */\n      tag_164\n        /* \"#utility.yul\":3300:3306   */\n      dup5\n        /* \"#utility.yul\":3295:3298   */\n      dup3\n        /* \"#utility.yul\":3290:3293   */\n      dup6\n        /* \"#utility.yul\":3253:3307   */\n      tag_88\n      jump\t// in\n    tag_164:\n        /* \"#utility.yul\":2973:3313   */\n      pop\n        /* \"#utility.yul\":2890:3313   */\n      swap4\n      swap3\n      pop\n      pop\n      pop\n      jump\t// out\n        /* \"#utility.yul\":3332:3670   */\n    tag_90:\n        /* \"#utility.yul\":3387:3392   */\n      0x00\n        /* \"#utility.yul\":3436:3439   */\n      dup3\n        /* \"#utility.yul\":3429:3433   */\n      0x1f\n        /* \"#utility.yul\":3421:3427   */\n      dup4\n        /* \"#utility.yul\":3417:3434   */\n      add\n        /* \"#utility.yul\":3413:3440   */\n      slt\n        /* \"#utility.yul\":3403:3525   */\n      tag_166\n      jumpi\n        /* \"#utility.yul\":3444:3523   */\n      tag_167\n      tag_82\n      jump\t// in\n    tag_167:\n        /* \"#utility.yul\":3403:3525   */\n    tag_166:\n        /* \"#utility.yul\":3561:3567   */\n      dup2\n        /* \"#utility.yul\":3548:3568   */\n      calldataload\n        /* \"#utility.yul\":3586:3664   */\n      tag_168\n        /* \"#utility.yul\":3660:3663   */\n      dup5\n        /* \"#utility.yul\":3652:3658   */\n      dup3\n        /* \"#utility.yul\":3645:3649   */\n      0x20\n        /* \"#utility.yul\":3637:3643   */\n      dup7\n        /* \"#utility.yul\":3633:3650   */\n      add\n        /* \"#utility.yul\":3586:3664   */\n      tag_89\n      jump\t// in\n    tag_168:\n        /* \"#utility.yul\":3577:3664   */\n      swap2\n      pop\n        /* \"#utility.yul\":3393:3670   */\n      pop\n        /* \"#utility.yul\":3332:3670   */\n      swap3\n      swap2\n      pop\n      pop\n      jump\t// out\n        /* \"#utility.yul\":3676:4183   */\n    tag_19:\n        /* \"#utility.yul\":3744:3750   */\n      0x00\n        /* \"#utility.yul\":3793:3795   */\n      0x20\n        /* \"#utility.yul\":3781:3790   */\n      dup3\n        /* \"#utility.yul\":3772:3779   */\n      dup5\n        /* \"#utility.yul\":3768:3791   */\n      sub\n        /* \"#utility.yul\":3764:3796   */\n      slt\n        /* \"#utility.yul\":3761:3880   */\n      iszero\n      tag_170\n      jumpi\n        /* \"#utility.yul\":3799:3878   */\n      tag_171\n      tag_80\n      jump\t// in\n    tag_171:\n        /* \"#utility.yul\":3761:3880   */\n    tag_170:\n        /* \"#utility.yul\":3947:3948   */\n      0x00\n        /* \"#utility.yul\":3936:3945   */\n      dup3\n        /* \"#utility.yul\":3932:3949   */\n      add\n        /* \"#utility.yul\":3919:3950   */\n      calldataload\n        /* \"#utility.yul\":3977:3995   */\n      0xffffffffffffffff\n        /* \"#utility.yul\":3969:3975   */\n      dup2\n        /* \"#utility.yul\":3966:3996   */\n      gt\n        /* \"#utility.yul\":3963:4080   */\n      iszero\n      tag_172\n      jumpi\n        /* \"#utility.yul\":3999:4078   */\n      tag_173\n      tag_81\n      jump\t// in\n    tag_173:\n        /* \"#utility.yul\":3963:4080   */\n    tag_172:\n        /* \"#utility.yul\":4104:4166   */\n      tag_174\n        /* \"#utility.yul\":4158:4165   */\n      dup5\n        /* \"#utility.yul\":4149:4155   */\n      dup3\n        /* \"#utility.yul\":4138:4147   */\n      dup6\n        /* \"#utility.yul\":4134:4156   */\n      add\n        /* \"#utility.yul\":4104:4166   */\n      tag_90\n      jump\t// in\n    tag_174:\n        /* \"#utility.yul\":4094:4166   */\n      swap2\n      pop\n        /* \"#utility.yul\":3890:4176   */\n      pop\n        /* \"#utility.yul\":3676:4183   */\n      swap3\n      swap2\n      pop\n      pop\n      jump\t// out\n        /* \"#utility.yul\":4189:4497   */\n    tag_91:\n        /* \"#utility.yul\":4251:4255   */\n      0x00\n        /* \"#utility.yul\":4341:4359   */\n      0xffffffffffffffff\n        /* \"#utility.yul\":4333:4339   */\n      dup3\n        /* \"#utility.yul\":4330:4360   */\n      gt\n        /* \"#utility.yul\":4327:4383   */\n      iszero\n      tag_176\n      jumpi\n        /* \"#utility.yul\":4363:4381   */\n      tag_177\n      tag_84\n      jump\t// in\n    tag_177:\n        /* \"#utility.yul\":4327:4383   */\n    tag_176:\n        /* \"#utility.yul\":4401:4430   */\n      tag_178\n        /* \"#utility.yul\":4423:4429   */\n      dup3\n        /* \"#utility.yul\":4401:4430   */\n      tag_77\n      jump\t// in\n    tag_178:\n        /* \"#utility.yul\":4393:4430   */\n      swap1\n      pop\n        /* \"#utility.yul\":4485:4489   */\n      0x20\n        /* \"#utility.yul\":4479:4483   */\n      dup2\n        /* \"#utility.yul\":4475:4490   */\n      add\n        /* \"#utility.yul\":4467:4490   */\n      swap1\n      pop\n        /* \"#utility.yul\":4189:4497   */\n      swap2\n      swap1\n      pop\n      jump\t// out\n        /* \"#utility.yul\":4503:4928   */\n    tag_92:\n        /* \"#utility.yul\":4581:4586   */\n      0x00\n        /* \"#utility.yul\":4606:4672   */\n      tag_180\n        /* \"#utility.yul\":4622:4671   */\n      tag_181\n        /* \"#utility.yul\":4664:4670   */\n      dup5\n        /* \"#utility.yul\":4622:4671   */\n      tag_91\n      jump\t// in\n    tag_181:\n        /* \"#utility.yul\":4606:4672   */\n      tag_86\n      jump\t// in\n    tag_180:\n        /* \"#utility.yul\":4597:4672   */\n      swap1\n      pop\n        /* \"#utility.yul\":4695:4701   */\n      dup3\n        /* \"#utility.yul\":4688:4693   */\n      dup2\n        /* \"#utility.yul\":4681:4702   */\n      mstore\n        /* \"#utility.yul\":4733:4737   */\n      0x20\n        /* \"#utility.yul\":4726:4731   */\n      dup2\n        /* \"#utility.yul\":4722:4738   */\n      add\n        /* \"#utility.yul\":4771:4774   */\n      dup5\n        /* \"#utility.yul\":4762:4768   */\n      dup5\n        /* \"#utility.yul\":4757:4760   */\n      dup5\n        /* \"#utility.yul\":4753:4769   */\n      add\n        /* \"#utility.yul\":4750:4775   */\n      gt\n        /* \"#utility.yul\":4747:4859   */\n      iszero\n      tag_182\n      jumpi\n        /* \"#utility.yul\":4778:4857   */\n      tag_183\n      tag_83\n      jump\t// in\n    tag_183:\n        /* \"#utility.yul\":4747:4859   */\n    tag_182:\n        /* \"#utility.yul\":4868:4922   */\n      tag_184\n        /* \"#utility.yul\":4915:4921   */\n      dup5\n        /* \"#utility.yul\":4910:4913   */\n      dup3\n        /* \"#utility.yul\":4905:4908   */\n      dup6\n        /* \"#utility.yul\":4868:4922   */\n      tag_88\n      jump\t// in\n    tag_184:\n        /* \"#utility.yul\":4587:4928   */\n      pop\n        /* \"#utility.yul\":4503:4928   */\n      swap4\n      swap3\n      pop\n      pop\n      pop\n      jump\t// out\n        /* \"#utility.yul\":4948:5288   */\n    tag_93:\n        /* \"#utility.yul\":5004:5009   */\n      0x00\n        /* \"#utility.yul\":5053:5056   */\n      dup3\n        /* \"#utility.yul\":5046:5050   */\n      0x1f\n        /* \"#utility.yul\":5038:5044   */\n      dup4\n        /* \"#utility.yul\":5034:5051   */\n      add\n        /* \"#utility.yul\":5030:5057   */\n      slt\n        /* \"#utility.yul\":5020:5142   */\n      tag_186\n      jumpi\n        /* \"#utility.yul\":5061:5140   */\n      tag_187\n      tag_82\n      jump\t// in\n    tag_187:\n        /* \"#utility.yul\":5020:5142   */\n    tag_186:\n        /* \"#utility.yul\":5178:5184   */\n      dup2\n        /* \"#utility.yul\":5165:5185   */\n      calldataload\n        /* \"#utility.yul\":5203:5282   */\n      tag_188\n        /* \"#utility.yul\":5278:5281   */\n      dup5\n        /* \"#utility.yul\":5270:5276   */\n      dup3\n        /* \"#utility.yul\":5263:5267   */\n      0x20\n        /* \"#utility.yul\":5255:5261   */\n      dup7\n        /* \"#utility.yul\":5251:5268   */\n      add\n        /* \"#utility.yul\":5203:5282   */\n      tag_92\n      jump\t// in\n    tag_188:\n        /* \"#utility.yul\":5194:5282   */\n      swap2\n      pop\n        /* \"#utility.yul\":5010:5288   */\n      pop\n        /* \"#utility.yul\":4948:5288   */\n      swap3\n      swap2\n      pop\n      pop\n      jump\t// out\n        /* \"#utility.yul\":5294:5803   */\n    tag_23:\n        /* \"#utility.yul\":5363:5369   */\n      0x00\n        /* \"#utility.yul\":5412:5414   */\n      0x20\n        /* \"#utility.yul\":5400:5409   */\n      dup3\n        /* \"#utility.yul\":5391:5398   */\n      dup5\n        /* \"#utility.yul\":5387:5410   */\n      sub\n        /* \"#utility.yul\":5383:5415   */\n      slt\n        /* \"#utility.yul\":5380:5499   */\n      iszero\n      tag_190\n      jumpi\n        /* \"#utility.yul\":5418:5497   */\n      tag_191\n      tag_80\n      jump\t// in\n    tag_191:\n        /* \"#utility.yul\":5380:5499   */\n    tag_190:\n        /* \"#utility.yul\":5566:5567   */\n      0x00\n        /* \"#utility.yul\":5555:5564   */\n      dup3\n        /* \"#utility.yul\":5551:5568   */\n      add\n        /* \"#utility.yul\":5538:5569   */\n      calldataload\n        /* \"#utility.yul\":5596:5614   */\n      0xffffffffffffffff\n        /* \"#utility.yul\":5588:5594   */\n      dup2\n        /* \"#utility.yul\":5585:5615   */\n      gt\n        /* \"#utility.yul\":5582:5699   */\n      iszero\n      tag_192\n      jumpi\n        /* \"#utility.yul\":5618:5697   */\n      tag_193\n      tag_81\n      jump\t// in\n    tag_193:\n        /* \"#utility.yul\":5582:5699   */\n    tag_192:\n        /* \"#utility.yul\":5723:5786   */\n      tag_194\n        /* \"#utility.yul\":5778:5785   */\n      dup5\n        /* \"#utility.yul\":5769:5775   */\n      dup3\n        /* \"#utility.yul\":5758:5767   */\n      dup6\n        /* \"#utility.yul\":5754:5776   */\n      add\n        /* \"#utility.yul\":5723:5786   */\n      tag_93\n      jump\t// in\n    tag_194:\n        /* \"#utility.yul\":5713:5786   */\n      swap2\n      pop\n        /* \"#utility.yul\":5509:5796   */\n      pop\n        /* \"#utility.yul\":5294:5803   */\n      swap3\n      swap2\n      pop\n      pop\n      jump\t// out\n        /* \"#utility.yul\":5809:5886   */\n    tag_94:\n        /* \"#utility.yul\":5846:5853   */\n      0x00\n        /* \"#utility.yul\":5875:5880   */\n      dup2\n        /* \"#utility.yul\":5864:5880   */\n      swap1\n      pop\n        /* \"#utility.yul\":5809:5886   */\n      swap2\n      swap1\n      pop\n      jump\t// out\n        /* \"#utility.yul\":5892:6010   */\n    tag_95:\n        /* \"#utility.yul\":5979:6003   */\n      tag_197\n        /* \"#utility.yul\":5997:6002   */\n      dup2\n        /* \"#utility.yul\":5979:6003   */\n      tag_94\n      jump\t// in\n    tag_197:\n        /* \"#utility.yul\":5974:5977   */\n      dup3\n        /* \"#utility.yul\":5967:6004   */\n      mstore\n        /* \"#utility.yul\":5892:6010   */\n      pop\n      pop\n      jump\t// out\n        /* \"#utility.yul\":6016:6238   */\n    tag_26:\n        /* \"#utility.yul\":6109:6113   */\n      0x00\n        /* \"#utility.yul\":6147:6149   */\n      0x20\n        /* \"#utility.yul\":6136:6145   */\n      dup3\n        /* \"#utility.yul\":6132:6150   */\n      add\n        /* \"#utility.yul\":6124:6150   */\n      swap1\n      pop\n        /* \"#utility.yul\":6160:6231   */\n      tag_199\n        /* \"#utility.yul\":6228:6229   */\n      0x00\n        /* \"#utility.yul\":6217:6226   */\n      dup4\n        /* \"#utility.yul\":6213:6230   */\n      add\n        /* \"#utility.yul\":6204:6210   */\n      dup5\n        /* \"#utility.yul\":6160:6231   */\n      tag_95\n      jump\t// in\n    tag_199:\n        /* \"#utility.yul\":6016:6238   */\n      swap3\n      swap2\n      pop\n      pop\n      jump\t// out\n        /* \"#utility.yul\":6244:6334   */\n    tag_96:\n        /* \"#utility.yul\":6278:6285   */\n      0x00\n        /* \"#utility.yul\":6321:6326   */\n      dup2\n        /* \"#utility.yul\":6314:6327   */\n      iszero\n        /* \"#utility.yul\":6307:6328   */\n      iszero\n        /* \"#utility.yul\":6296:6328   */\n      swap1\n      pop\n        /* \"#utility.yul\":6244:6334   */\n      swap2\n      swap1\n      pop\n      jump\t// out\n        /* \"#utility.yul\":6340:6456   */\n    tag_97:\n        /* \"#utility.yul\":6410:6431   */\n      tag_202\n        /* \"#utility.yul\":6425:6430   */\n      dup2\n        /* \"#utility.yul\":6410:6431   */\n      tag_96\n      jump\t// in\n    tag_202:\n        /* \"#utility.yul\":6403:6408   */\n      dup2\n        /* \"#utility.yul\":6400:6432   */\n      eq\n        /* \"#utility.yul\":6390:6450   */\n      tag_203\n      jumpi\n        /* \"#utility.yul\":6446:6447   */\n      0x00\n        /* \"#utility.yul\":6443:6444   */\n      dup1\n        /* \"#utility.yul\":6436:6448   */\n      revert\n        /* \"#utility.yul\":6390:6450   */\n    tag_203:\n        /* \"#utility.yul\":6340:6456   */\n      pop\n      jump\t// out\n        /* \"#utility.yul\":6462:6595   */\n    tag_98:\n        /* \"#utility.yul\":6505:6510   */\n      0x00\n        /* \"#utility.yul\":6543:6549   */\n      dup2\n        /* \"#utility.yul\":6530:6550   */\n      calldataload\n        /* \"#utility.yul\":6521:6550   */\n      swap1\n      pop\n        /* \"#utility.yul\":6559:6589   */\n      tag_205\n        /* \"#utility.yul\":6583:6588   */\n      dup2\n        /* \"#utility.yul\":6559:6589   */\n      tag_97\n      jump\t// in\n    tag_205:\n        /* \"#utility.yul\":6462:6595   */\n      swap3\n      swap2\n      pop\n      pop\n      jump\t// out\n        /* \"#utility.yul\":6601:6924   */\n    tag_29:\n        /* \"#utility.yul\":6657:6663   */\n      0x00\n        /* \"#utility.yul\":6706:6708   */\n      0x20\n        /* \"#utility.yul\":6694:6703   */\n      dup3\n        /* \"#utility.yul\":6685:6692   */\n      dup5\n        /* \"#utility.yul\":6681:6704   */\n      sub\n        /* \"#utility.yul\":6677:6709   */\n      slt\n        /* \"#utility.yul\":6674:6793   */\n      iszero\n      tag_207\n      jumpi\n        /* \"#utility.yul\":6712:6791   */\n      tag_208\n      tag_80\n      jump\t// in\n    tag_208:\n        /* \"#utility.yul\":6674:6793   */\n    tag_207:\n        /* \"#utility.yul\":6832:6833   */\n      0x00\n        /* \"#utility.yul\":6857:6907   */\n      tag_209\n        /* \"#utility.yul\":6899:6906   */\n      dup5\n        /* \"#utility.yul\":6890:6896   */\n      dup3\n        /* \"#utility.yul\":6879:6888   */\n      dup6\n        /* \"#utility.yul\":6875:6897   */\n      add\n        /* \"#utility.yul\":6857:6907   */\n      tag_98\n      jump\t// in\n    tag_209:\n        /* \"#utility.yul\":6847:6907   */\n      swap2\n      pop\n        /* \"#utility.yul\":6803:6917   */\n      pop\n        /* \"#utility.yul\":6601:6924   */\n      swap3\n      swap2\n      pop\n      pop\n      jump\t// out\n        /* \"#utility.yul\":6930:7056   */\n    tag_99:\n        /* \"#utility.yul\":6967:6974   */\n      0x00\n        /* \"#utility.yul\":7007:7049   */\n      0xffffffffffffffffffffffffffffffffffffffff\n        /* \"#utility.yul\":7000:7005   */\n      dup3\n        /* \"#utility.yul\":6996:7050   */\n      and\n        /* \"#utility.yul\":6985:7050   */\n      swap1\n      pop\n        /* \"#utility.yul\":6930:7056   */\n      swap2\n      swap1\n      pop\n      jump\t// out\n        /* \"#utility.yul\":7062:7158   */\n    tag_100:\n        /* \"#utility.yul\":7099:7106   */\n      0x00\n        /* \"#utility.yul\":7128:7152   */\n      tag_212\n        /* \"#utility.yul\":7146:7151   */\n      dup3\n        /* \"#utility.yul\":7128:7152   */\n      tag_99\n      jump\t// in\n    tag_212:\n        /* \"#utility.yul\":7117:7152   */\n      swap1\n      pop\n        /* \"#utility.yul\":7062:7158   */\n      swap2\n      swap1\n      pop\n      jump\t// out\n        /* \"#utility.yul\":7164:7286   */\n    tag_101:\n        /* \"#utility.yul\":7237:7261   */\n      tag_214\n        /* \"#utility.yul\":7255:7260   */\n      dup2\n        /* \"#utility.yul\":7237:7261   */\n      tag_100\n      jump\t// in\n    tag_214:\n        /* \"#utility.yul\":7230:7235   */\n      dup2\n        /* \"#utility.yul\":7227:7262   */\n      eq\n        /* \"#utility.yul\":7217:7280   */\n      tag_215\n      jumpi\n        /* \"#utility.yul\":7276:7277   */\n      0x00\n        /* \"#utility.yul\":7273:7274   */\n      dup1\n        /* \"#utility.yul\":7266:7278   */\n      revert\n        /* \"#utility.yul\":7217:7280   */\n    tag_215:\n        /* \"#utility.yul\":7164:7286   */\n      pop\n      jump\t// out\n        /* \"#utility.yul\":7292:7431   */\n    tag_102:\n        /* \"#utility.yul\":7338:7343   */\n      0x00\n        /* \"#utility.yul\":7376:7382   */\n      dup2\n        /* \"#utility.yul\":7363:7383   */\n      calldataload\n        /* \"#utility.yul\":7354:7383   */\n      swap1\n      pop\n        /* \"#utility.yul\":7392:7425   */\n      tag_217\n        /* \"#utility.yul\":7419:7424   */\n      dup2\n        /* \"#utility.yul\":7392:7425   */\n      tag_101\n      jump\t// in\n    tag_217:\n        /* \"#utility.yul\":7292:7431   */\n      swap3\n      swap2\n      pop\n      pop\n      jump\t// out\n        /* \"#utility.yul\":7437:7766   */\n    tag_33:\n        /* \"#utility.yul\":7496:7502   */\n      0x00\n        /* \"#utility.yul\":7545:7547   */\n      0x20\n        /* \"#utility.yul\":7533:7542   */\n      dup3\n        /* \"#utility.yul\":7524:7531   */\n      dup5\n        /* \"#utility.yul\":7520:7543   */\n      sub\n        /* \"#utility.yul\":7516:7548   */\n      slt\n        /* \"#utility.yul\":7513:7632   */\n      iszero\n      tag_219\n      jumpi\n        /* \"#utility.yul\":7551:7630   */\n      tag_220\n      tag_80\n      jump\t// in\n    tag_220:\n        /* \"#utility.yul\":7513:7632   */\n    tag_219:\n        /* \"#utility.yul\":7671:7672   */\n      0x00\n        /* \"#utility.yul\":7696:7749   */\n      tag_221\n        /* \"#utility.yul\":7741:7748   */\n      dup5\n        /* \"#utility.yul\":7732:7738   */\n      dup3\n        /* \"#utility.yul\":7721:7730   */\n      dup6\n        /* \"#utility.yul\":7717:7739   */\n      add\n        /* \"#utility.yul\":7696:7749   */\n      tag_102\n      jump\t// in\n    tag_221:\n        /* \"#utility.yul\":7686:7749   */\n      swap2\n      pop\n        /* \"#utility.yul\":7642:7759   */\n      pop\n        /* \"#utility.yul\":7437:7766   */\n      swap3\n      swap2\n      pop\n      pop\n      jump\t// out\n        /* \"#utility.yul\":7772:7870   */\n    tag_103:\n        /* \"#utility.yul\":7823:7829   */\n      0x00\n        /* \"#utility.yul\":7857:7862   */\n      dup2\n        /* \"#utility.yul\":7851:7863   */\n      mload\n        /* \"#utility.yul\":7841:7863   */\n      swap1\n      pop\n        /* \"#utility.yul\":7772:7870   */\n      swap2\n      swap1\n      pop\n      jump\t// out\n        /* \"#utility.yul\":7876:8044   */\n    tag_104:\n        /* \"#utility.yul\":7959:7970   */\n      0x00\n        /* \"#utility.yul\":7993:7999   */\n      dup3\n        /* \"#utility.yul\":7988:7991   */\n      dup3\n        /* \"#utility.yul\":7981:8000   */\n      mstore\n        /* \"#utility.yul\":8033:8037   */\n      0x20\n        /* \"#utility.yul\":8028:8031   */\n      dup3\n        /* \"#utility.yul\":8024:8038   */\n      add\n        /* \"#utility.yul\":8009:8038   */\n      swap1\n      pop\n        /* \"#utility.yul\":7876:8044   */\n      swap3\n      swap2\n      pop\n      pop\n      jump\t// out\n        /* \"#utility.yul\":8050:8423   */\n    tag_105:\n        /* \"#utility.yul\":8136:8139   */\n      0x00\n        /* \"#utility.yul\":8164:8202   */\n      tag_225\n        /* \"#utility.yul\":8196:8201   */\n      dup3\n        /* \"#utility.yul\":8164:8202   */\n      tag_103\n      jump\t// in\n    tag_225:\n        /* \"#utility.yul\":8218:8288   */\n      tag_226\n        /* \"#utility.yul\":8281:8287   */\n      dup2\n        /* \"#utility.yul\":8276:8279   */\n      dup6\n        /* \"#utility.yul\":8218:8288   */\n      tag_104\n      jump\t// in\n    tag_226:\n        /* \"#utility.yul\":8211:8288   */\n      swap4\n      pop\n        /* \"#utility.yul\":8297:8362   */\n      tag_227\n        /* \"#utility.yul\":8355:8361   */\n      dup2\n        /* \"#utility.yul\":8350:8353   */\n      dup6\n        /* \"#utility.yul\":8343:8347   */\n      0x20\n        /* \"#utility.yul\":8336:8341   */\n      dup7\n        /* \"#utility.yul\":8332:8348   */\n      add\n        /* \"#utility.yul\":8297:8362   */\n      tag_76\n      jump\t// in\n    tag_227:\n        /* \"#utility.yul\":8387:8416   */\n      tag_228\n        /* \"#utility.yul\":8409:8415   */\n      dup2\n        /* \"#utility.yul\":8387:8416   */\n      tag_77\n      jump\t// in\n    tag_228:\n        /* \"#utility.yul\":8382:8385   */\n      dup5\n        /* \"#utility.yul\":8378:8417   */\n      add\n        /* \"#utility.yul\":8371:8417   */\n      swap2\n      pop\n        /* \"#utility.yul\":8140:8423   */\n      pop\n        /* \"#utility.yul\":8050:8423   */\n      swap3\n      swap2\n      pop\n      pop\n      jump\t// out\n        /* \"#utility.yul\":8429:8738   */\n    tag_38:\n        /* \"#utility.yul\":8540:8544   */\n      0x00\n        /* \"#utility.yul\":8578:8580   */\n      0x20\n        /* \"#utility.yul\":8567:8576   */\n      dup3\n        /* \"#utility.yul\":8563:8581   */\n      add\n        /* \"#utility.yul\":8555:8581   */\n      swap1\n      pop\n        /* \"#utility.yul\":8627:8636   */\n      dup2\n        /* \"#utility.yul\":8621:8625   */\n      dup2\n        /* \"#utility.yul\":8617:8637   */\n      sub\n        /* \"#utility.yul\":8613:8614   */\n      0x00\n        /* \"#utility.yul\":8602:8611   */\n      dup4\n        /* \"#utility.yul\":8598:8615   */\n      add\n        /* \"#utility.yul\":8591:8638   */\n      mstore\n        /* \"#utility.yul\":8655:8731   */\n      tag_230\n        /* \"#utility.yul\":8726:8730   */\n      dup2\n        /* \"#utility.yul\":8717:8723   */\n      dup5\n        /* \"#utility.yul\":8655:8731   */\n      tag_105\n      jump\t// in\n    tag_230:\n        /* \"#utility.yul\":8647:8731   */\n      swap1\n      pop\n        /* \"#utility.yul\":8429:8738   */\n      swap3\n      swap2\n      pop\n      pop\n      jump\t// out\n        /* \"#utility.yul\":8744:8862   */\n    tag_106:\n        /* \"#utility.yul\":8831:8855   */\n      tag_232\n        /* \"#utility.yul\":8849:8854   */\n      dup2\n        /* \"#utility.yul\":8831:8855   */\n      tag_100\n      jump\t// in\n    tag_232:\n        /* \"#utility.yul\":8826:8829   */\n      dup3\n        /* \"#utility.yul\":8819:8856   */\n      mstore\n        /* \"#utility.yul\":8744:8862   */\n      pop\n      pop\n      jump\t// out\n        /* \"#utility.yul\":8868:9090   */\n    tag_42:\n        /* \"#utility.yul\":8961:8965   */\n      0x00\n        /* \"#utility.yul\":8999:9001   */\n      0x20\n        /* \"#utility.yul\":8988:8997   */\n      dup3\n        /* \"#utility.yul\":8984:9002   */\n      add\n        /* \"#utility.yul\":8976:9002   */\n      swap1\n      pop\n        /* \"#utility.yul\":9012:9083   */\n      tag_234\n        /* \"#utility.yul\":9080:9081   */\n      0x00\n        /* \"#utility.yul\":9069:9078   */\n      dup4\n        /* \"#utility.yul\":9065:9082   */\n      add\n        /* \"#utility.yul\":9056:9062   */\n      dup5\n        /* \"#utility.yul\":9012:9083   */\n      tag_106\n      jump\t// in\n    tag_234:\n        /* \"#utility.yul\":8868:9090   */\n      swap3\n      swap2\n      pop\n      pop\n      jump\t// out\n        /* \"#utility.yul\":9096:9173   */\n    tag_107:\n        /* \"#utility.yul\":9133:9140   */\n      0x00\n        /* \"#utility.yul\":9162:9167   */\n      dup2\n        /* \"#utility.yul\":9151:9167   */\n      swap1\n      pop\n        /* \"#utility.yul\":9096:9173   */\n      swap2\n      swap1\n      pop\n      jump\t// out\n        /* \"#utility.yul\":9179:9297   */\n    tag_108:\n        /* \"#utility.yul\":9266:9290   */\n      tag_237\n        /* \"#utility.yul\":9284:9289   */\n      dup2\n        /* \"#utility.yul\":9266:9290   */\n      tag_107\n      jump\t// in\n    tag_237:\n        /* \"#utility.yul\":9261:9264   */\n      dup3\n        /* \"#utility.yul\":9254:9291   */\n      mstore\n        /* \"#utility.yul\":9179:9297   */\n      pop\n      pop\n      jump\t// out\n        /* \"#utility.yul\":9303:9525   */\n    tag_49:\n        /* \"#utility.yul\":9396:9400   */\n      0x00\n        /* \"#utility.yul\":9434:9436   */\n      0x20\n        /* \"#utility.yul\":9423:9432   */\n      dup3\n        /* \"#utility.yul\":9419:9437   */\n      add\n        /* \"#utility.yul\":9411:9437   */\n      swap1\n      pop\n        /* \"#utility.yul\":9447:9518   */\n      tag_239\n        /* \"#utility.yul\":9515:9516   */\n      0x00\n        /* \"#utility.yul\":9504:9513   */\n      dup4\n        /* \"#utility.yul\":9500:9517   */\n      add\n        /* \"#utility.yul\":9491:9497   */\n      dup5\n        /* \"#utility.yul\":9447:9518   */\n      tag_108\n      jump\t// in\n    tag_239:\n        /* \"#utility.yul\":9303:9525   */\n      swap3\n      swap2\n      pop\n      pop\n      jump\t// out\n        /* \"#utility.yul\":9531:9711   */\n    tag_109:\n        /* \"#utility.yul\":9579:9656   */\n      0x4e487b7100000000000000000000000000000000000000000000000000000000\n        /* \"#utility.yul\":9576:9577   */\n      0x00\n        /* \"#utility.yul\":9569:9657   */\n      mstore\n        /* \"#utility.yul\":9676:9680   */\n      0x22\n        /* \"#utility.yul\":9673:9674   */\n      0x04\n        /* \"#utility.yul\":9666:9681   */\n      mstore\n        /* \"#utility.yul\":9700:9704   */\n      0x24\n        /* \"#utility.yul\":9697:9698   */\n      0x00\n        /* \"#utility.yul\":9690:9705   */\n      revert\n        /* \"#utility.yul\":9717:10037   */\n    tag_51:\n        /* \"#utility.yul\":9761:9767   */\n      0x00\n        /* \"#utility.yul\":9798:9799   */\n      0x02\n        /* \"#utility.yul\":9792:9796   */\n      dup3\n        /* \"#utility.yul\":9788:9800   */\n      div\n        /* \"#utility.yul\":9778:9800   */\n      swap1\n      pop\n        /* \"#utility.yul\":9845:9846   */\n      0x01\n        /* \"#utility.yul\":9839:9843   */\n      dup3\n        /* \"#utility.yul\":9835:9847   */\n      and\n        /* \"#utility.yul\":9866:9884   */\n      dup1\n        /* \"#utility.yul\":9856:9937   */\n      tag_242\n      jumpi\n        /* \"#utility.yul\":9922:9926   */\n      0x7f\n        /* \"#utility.yul\":9914:9920   */\n      dup3\n        /* \"#utility.yul\":9910:9927   */\n      and\n        /* \"#utility.yul\":9900:9927   */\n      swap2\n      pop\n        /* \"#utility.yul\":9856:9937   */\n    tag_242:\n        /* \"#utility.yul\":9984:9986   */\n      0x20\n        /* \"#utility.yul\":9976:9982   */\n      dup3\n        /* \"#utility.yul\":9973:9987   */\n      lt\n        /* \"#utility.yul\":9953:9971   */\n      dup2\n        /* \"#utility.yul\":9950:9988   */\n      sub\n        /* \"#utility.yul\":9947:10031   */\n      tag_243\n      jumpi\n        /* \"#utility.yul\":10003:10021   */\n      tag_244\n      tag_109\n      jump\t// in\n    tag_244:\n        /* \"#utility.yul\":9947:10031   */\n    tag_243:\n        /* \"#utility.yul\":9768:10037   */\n      pop\n        /* \"#utility.yul\":9717:10037   */\n      swap2\n      swap1\n      pop\n      jump\t// out\n        /* \"#utility.yul\":10043:10183   */\n    tag_110:\n        /* \"#utility.yul\":10091:10095   */\n      0x00\n        /* \"#utility.yul\":10114:10117   */\n      dup2\n        /* \"#utility.yul\":10106:10117   */\n      swap1\n      pop\n        /* \"#utility.yul\":10137:10140   */\n      dup2\n        /* \"#utility.yul\":10134:10135   */\n      0x00\n        /* \"#utility.yul\":10127:10141   */\n      mstore\n        /* \"#utility.yul\":10171:10175   */\n      0x20\n        /* \"#utility.yul\":10168:10169   */\n      0x00\n        /* \"#utility.yul\":10158:10176   */\n      keccak256\n        /* \"#utility.yul\":10150:10176   */\n      swap1\n      pop\n        /* \"#utility.yul\":10043:10183   */\n      swap2\n      swap1\n      pop\n      jump\t// out\n        /* \"#utility.yul\":10189:10282   */\n    tag_111:\n        /* \"#utility.yul\":10226:10232   */\n      0x00\n        /* \"#utility.yul\":10273:10275   */\n      0x20\n        /* \"#utility.yul\":10268:10270   */\n      0x1f\n        /* \"#utility.yul\":10261:10266   */\n      dup4\n        /* \"#utility.yul\":10257:10271   */\n      add\n        /* \"#utility.yul\":10253:10276   */\n      div\n        /* \"#utility.yul\":10243:10276   */\n      swap1\n      pop\n        /* \"#utility.yul\":10189:10282   */\n      swap2\n      swap1\n      pop\n      jump\t// out\n        /* \"#utility.yul\":10288:10395   */\n    tag_112:\n        /* \"#utility.yul\":10332:10340   */\n      0x00\n        /* \"#utility.yul\":10382:10387   */\n      dup3\n        /* \"#utility.yul\":10376:10380   */\n      dup3\n        /* \"#utility.yul\":10372:10388   */\n      shl\n        /* \"#utility.yul\":10351:10388   */\n      swap1\n      pop\n        /* \"#utility.yul\":10288:10395   */\n      swap3\n      swap2\n      pop\n      pop\n      jump\t// out\n        /* \"#utility.yul\":10401:10794   */\n    tag_113:\n        /* \"#utility.yul\":10470:10476   */\n      0x00\n        /* \"#utility.yul\":10520:10521   */\n      0x08\n        /* \"#utility.yul\":10508:10518   */\n      dup4\n        /* \"#utility.yul\":10504:10522   */\n      mul\n        /* \"#utility.yul\":10543:10640   */\n      tag_249\n        /* \"#utility.yul\":10573:10639   */\n      0xffffffffffffffffffffffffffffffffffffffffffffffffffffffffffffffff\n        /* \"#utility.yul\":10562:10571   */\n      dup3\n        /* \"#utility.yul\":10543:10640   */\n      tag_112\n      jump\t// in\n    tag_249:\n        /* \"#utility.yul\":10661:10700   */\n      tag_250\n        /* \"#utility.yul\":10691:10699   */\n      dup7\n        /* \"#utility.yul\":10680:10689   */\n      dup4\n        /* \"#utility.yul\":10661:10700   */\n      tag_112\n      jump\t// in\n    tag_250:\n        /* \"#utility.yul\":10649:10700   */\n      swap6\n      pop\n        /* \"#utility.yul\":10733:10737   */\n      dup1\n        /* \"#utility.yul\":10729:10738   */\n      not\n        /* \"#utility.yul\":10722:10727   */\n      dup5\n        /* \"#utility.yul\":10718:10739   */\n      and\n        /* \"#utility.yul\":10709:10739   */\n      swap4\n      pop\n        /* \"#utility.yul\":10782:10786   */\n      dup1\n        /* \"#utility.yul\":10772:10780   */\n      dup7\n        /* \"#utility.yul\":10768:10787   */\n      and\n        /* \"#utility.yul\":10761:10766   */\n      dup5\n        /* \"#utility.yul\":10758:10788   */\n      or\n        /* \"#utility.yul\":10748:10788   */\n      swap3\n      pop\n        /* \"#utility.yul\":10477:10794   */\n      pop\n      pop\n        /* \"#utility.yul\":10401:10794   */\n      swap4\n      swap3\n      pop\n      pop\n      pop\n      jump\t// out\n        /* \"#utility.yul\":10800:10860   */\n    tag_114:\n        /* \"#utility.yul\":10828:10831   */\n      0x00\n        /* \"#utility.yul\":10849:10854   */\n      dup2\n        /* \"#utility.yul\":10842:10854   */\n      swap1\n      pop\n        /* \"#utility.yul\":10800:10860   */\n      swap2\n      swap1\n      pop\n      jump\t// out\n        /* \"#utility.yul\":10866:11008   */\n    tag_115:\n        /* \"#utility.yul\":10916:10925   */\n      0x00\n        /* \"#utility.yul\":10949:11002   */\n      tag_253\n        /* \"#utility.yul\":10967:11001   */\n      tag_254\n        /* \"#utility.yul\":10976:11000   */\n      tag_255\n        /* \"#utility.yul\":10994:10999   */\n      dup5\n        /* \"#utility.yul\":10976:11000   */\n      tag_107\n      jump\t// in\n    tag_255:\n        /* \"#utility.yul\":10967:11001   */\n      tag_114\n      jump\t// in\n    tag_254:\n        /* \"#utility.yul\":10949:11002   */\n      tag_107\n      jump\t// in\n    tag_253:\n        /* \"#utility.yul\":10936:11002   */\n      swap1\n      pop\n        /* \"#utility.yul\":10866:11008   */\n      swap2\n      swap1\n      pop\n      jump\t// out\n        /* \"#utility.yul\":11014:11089   */\n    tag_116:\n        /* \"#utility.yul\":11057:11060   */\n      0x00\n        /* \"#utility.yul\":11078:11083   */\n      dup2\n        /* \"#utility.yul\":11071:11083   */\n      swap1\n      pop\n        /* \"#utility.yul\":11014:11089   */\n      swap2\n      swap1\n      pop\n      jump\t// out\n        /* \"#utility.yul\":11095:11364   */\n    tag_117:\n        /* \"#utility.yul\":11205:11244   */\n      tag_258\n        /* \"#utility.yul\":11236:11243   */\n      dup4\n        /* \"#utility.yul\":11205:11244   */\n      tag_115\n      jump\t// in\n    tag_258:\n        /* \"#utility.yul\":11266:11357   */\n      tag_259\n        /* \"#utility.yul\":11315:11356   */\n      tag_260\n        /* \"#utility.yul\":11339:11355   */\n      dup3\n        /* \"#utility.yul\":11315:11356   */\n      tag_116\n      jump\t// in\n    tag_260:\n        /* \"#utility.yul\":11307:11313   */\n      dup5\n        /* \"#utility.yul\":11300:11304   */\n      dup5\n        /* \"#utility.yul\":11294:11305   */\n      sload\n        /* \"#utility.yul\":11266:11357   */\n      tag_113\n      jump\t// in\n    tag_259:\n        /* \"#utility.yul\":11260:11264   */\n      dup3\n        /* \"#utility.yul\":11253:11358   */\n      sstore\n        /* \"#utility.yul\":11171:11364   */\n      pop\n        /* \"#utility.yul\":11095:11364   */\n      pop\n      pop\n      pop\n      jump\t// out\n        /* \"#utility.yul\":11370:11443   */\n    tag_118:\n        /* \"#utility.yul\":11415:11418   */\n      0x00\n        /* \"#utility.yul\":11370:11443   */\n      swap1\n      jump\t// out\n        /* \"#utility.yul\":11449:11638   */\n    tag_119:\n        /* \"#utility.yul\":11526:11558   */\n      tag_263\n      tag_118\n      jump\t// in\n    tag_263:\n        /* \"#utility.yul\":11567:11632   */\n      tag_264\n        /* \"#utility.yul\":11625:11631   */\n      dup2\n        /* \"#utility.yul\":11617:11623   */\n      dup5\n        /* \"#utility.yul\":11611:11615   */\n      dup5\n        /* \"#utility.yul\":11567:11632   */\n      tag_117\n      jump\t// in\n    tag_264:\n        /* \"#utility.yul\":11502:11638   */\n      pop\n        /* \"#utility.yul\":11449:11638   */\n      pop\n      pop\n      jump\t// out\n        /* \"#utility.yul\":11644:11830   */\n    tag_120:\n        /* \"#utility.yul\":11704:11824   */\n    tag_266:\n        /* \"#utility.yul\":11721:11724   */\n      dup2\n        /* \"#utility.yul\":11714:11719   */\n      dup2\n        /* \"#utility.yul\":11711:11725   */\n      lt\n        /* \"#utility.yul\":11704:11824   */\n      iszero\n      tag_268\n      jumpi\n        /* \"#utility.yul\":11775:11814   */\n      tag_269\n        /* \"#utility.yul\":11812:11813   */\n      0x00\n        /* \"#utility.yul\":11805:11810   */\n      dup3\n        /* \"#utility.yul\":11775:11814   */\n      tag_119\n      jump\t// in\n    tag_269:\n        /* \"#utility.yul\":11748:11749   */\n      0x01\n        /* \"#utility.yul\":11741:11746   */\n      dup2\n        /* \"#utility.yul\":11737:11750   */\n      add\n        /* \"#utility.yul\":11728:11750   */\n      swap1\n      pop\n        /* \"#utility.yul\":11704:11824   */\n      jump(tag_266)\n    tag_268:\n        /* \"#utility.yul\":11644:11830   */\n      pop\n      pop\n      jump\t// out\n        /* \"#utility.yul\":11836:12377   */\n    tag_121:\n        /* \"#utility.yul\":11936:11938   */\n      0x1f\n        /* \"#utility.yul\":11931:11934   */\n      dup3\n        /* \"#utility.yul\":11928:11939   */\n      gt\n        /* \"#utility.yul\":11925:12370   */\n      iszero\n      tag_271\n      jumpi\n        /* \"#utility.yul\":11970:12007   */\n      tag_272\n        /* \"#utility.yul\":12001:12006   */\n      dup2\n        /* \"#utility.yul\":11970:12007   */\n      tag_110\n      jump\t// in\n    tag_272:\n        /* \"#utility.yul\":12053:12082   */\n      tag_273\n        /* \"#utility.yul\":12071:12081   */\n      dup5\n        /* \"#utility.yul\":12053:12082   */\n      tag_111\n      jump\t// in\n    tag_273:\n        /* \"#utility.yul\":12043:12051   */\n      dup2\n        /* \"#utility.yul\":12039:12083   */\n      add\n        /* \"#utility.yul\":12236:12238   */\n      0x20\n        /* \"#utility.yul\":12224:12234   */\n      dup6\n        /* \"#utility.yul\":12221:12239   */\n      lt\n        /* \"#utility.yul\":12218:12267   */\n      iszero\n      tag_274\n      jumpi\n        /* \"#utility.yul\":12257:12265   */\n      dup2\n        /* \"#utility.yul\":12242:12265   */\n      swap1\n      pop\n        /* \"#utility.yul\":12218:12267   */\n    tag_274:\n        /* \"#utility.yul\":12280:12360   */\n      tag_275\n        /* \"#utility.yul\":12336:12358   */\n      tag_276\n        /* \"#utility.yul\":12354:12357   */\n      dup6\n        /* \"#utility.yul\":12336:12358   */\n      tag_111\n      jump\t// in\n    tag_276:\n        /* \"#utility.yul\":12326:12334   */\n      dup4\n        /* \"#utility.yul\":12322:12359   */\n      add\n        /* \"#utility.yul\":12309:12320   */\n      dup3\n        /* \"#utility.yul\":12280:12360   */\n      tag_120\n      jump\t// in\n    tag_275:\n        /* \"#utility.yul\":11940:12370   */\n      pop\n      pop\n        /* \"#utility.yul\":11925:12370   */\n    tag_271:\n        /* \"#utility.yul\":11836:12377   */\n      pop\n      pop\n      pop\n      jump\t// out\n        /* \"#utility.yul\":12383:12500   */\n    tag_122:\n        /* \"#utility.yul\":12437:12445   */\n      0x00\n        /* \"#utility.yul\":12487:12492   */\n      dup3\n        /* \"#utility.yul\":12481:12485   */\n      dup3\n        /* \"#utility.yul\":12477:12493   */\n      shr\n        /* \"#utility.yul\":12456:12493   */\n      swap1\n      pop\n        /* \"#utility.yul\":12383:12500   */\n      swap3\n      swap2\n      pop\n      pop\n      jump\t// out\n        /* \"#utility.yul\":12506:12675   */\n    tag_123:\n        /* \"#utility.yul\":12550:12556   */\n      0x00\n        /* \"#utility.yul\":12583:12634   */\n      tag_279\n        /* \"#utility.yul\":12631:12632   */\n      0x00\n        /* \"#utility.yul\":12627:12633   */\n      not\n        /* \"#utility.yul\":12619:12624   */\n      dup5\n        /* \"#utility.yul\":12616:12617   */\n      0x08\n        /* \"#utility.yul\":12612:12625   */\n      mul\n        /* \"#utility.yul\":12583:12634   */\n      tag_122\n      jump\t// in\n    tag_279:\n        /* \"#utility.yul\":12579:12635   */\n      not\n        /* \"#utility.yul\":12664:12668   */\n      dup1\n        /* \"#utility.yul\":12658:12662   */\n      dup4\n        /* \"#utility.yul\":12654:12669   */\n      and\n        /* \"#utility.yul\":12644:12669   */\n      swap2\n      pop\n        /* \"#utility.yul\":12557:12675   */\n      pop\n        /* \"#utility.yul\":12506:12675   */\n      swap3\n      swap2\n      pop\n      pop\n      jump\t// out\n        /* \"#utility.yul\":12680:12975   */\n    tag_124:\n        /* \"#utility.yul\":12756:12760   */\n      0x00\n        /* \"#utility.yul\":12902:12931   */\n      tag_281\n        /* \"#utility.yul\":12927:12930   */\n      dup4\n        /* \"#utility.yul\":12921:12925   */\n      dup4\n        /* \"#utility.yul\":12902:12931   */\n      tag_123\n      jump\t// in\n    tag_281:\n        /* \"#utility.yul\":12894:12931   */\n      swap2\n      pop\n        /* \"#utility.yul\":12964:12967   */\n      dup3\n        /* \"#utility.yul\":12961:12962   */\n      0x02\n        /* \"#utility.yul\":12957:12968   */\n      mul\n        /* \"#utility.yul\":12951:12955   */\n      dup3\n        /* \"#utility.yul\":12948:12969   */\n      or\n        /* \"#utility.yul\":12940:12969   */\n      swap1\n      pop\n        /* \"#utility.yul\":12680:12975   */\n      swap3\n      swap2\n      pop\n      pop\n      jump\t// out\n        /* \"#utility.yul\":12980:14370   */\n    tag_58:\n        /* \"#utility.yul\":13095:13131   */\n      tag_283\n        /* \"#utility.yul\":13127:13130   */\n      dup3\n        /* \"#utility.yul\":13095:13131   */\n      tag_103\n      jump\t// in\n    tag_283:\n        /* \"#utility.yul\":13196:13214   */\n      0xffffffffffffffff\n        /* \"#utility.yul\":13188:13194   */\n      dup2\n        /* \"#utility.yul\":13185:13215   */\n      gt\n        /* \"#utility.yul\":13182:13238   */\n      iszero\n      tag_284\n      jumpi\n        /* \"#utility.yul\":13218:13236   */\n      tag_285\n      tag_84\n      jump\t// in\n    tag_285:\n        /* \"#utility.yul\":13182:13238   */\n    tag_284:\n        /* \"#utility.yul\":13262:13300   */\n      tag_286\n        /* \"#utility.yul\":13294:13298   */\n      dup3\n        /* \"#utility.yul\":13288:13299   */\n      sload\n        /* \"#utility.yul\":13262:13300   */\n      tag_51\n      jump\t// in\n    tag_286:\n        /* \"#utility.yul\":13347:13413   */\n      tag_287\n        /* \"#utility.yul\":13406:13412   */\n      dup3\n        /* \"#utility.yul\":13398:13404   */\n      dup3\n        /* \"#utility.yul\":13392:13396   */\n      dup6\n        /* \"#utility.yul\":13347:13413   */\n      tag_121\n      jump\t// in\n    tag_287:\n        /* \"#utility.yul\":13440:13441   */\n      0x00\n        /* \"#utility.yul\":13464:13468   */\n      0x20\n        /* \"#utility.yul\":13451:13468   */\n      swap1\n      pop\n        /* \"#utility.yul\":13496:13498   */\n      0x1f\n        /* \"#utility.yul\":13488:13494   */\n      dup4\n        /* \"#utility.yul\":13485:13499   */\n      gt\n        /* \"#utility.yul\":13513:13514   */\n      0x01\n        /* \"#utility.yul\":13508:14125   */\n      dup2\n      eq\n      tag_289\n      jumpi\n        /* \"#utility.yul\":14169:14170   */\n      0x00\n        /* \"#utility.yul\":14186:14192   */\n      dup5\n        /* \"#utility.yul\":14183:14260   */\n      iszero\n      tag_290\n      jumpi\n        /* \"#utility.yul\":14235:14244   */\n      dup3\n        /* \"#utility.yul\":14230:14233   */\n      dup8\n        /* \"#utility.yul\":14226:14245   */\n      add\n        /* \"#utility.yul\":14220:14246   */\n      mload\n        /* \"#utility.yul\":14211:14246   */\n      swap1\n      pop\n        /* \"#utility.yul\":14183:14260   */\n    tag_290:\n        /* \"#utility.yul\":14286:14353   */\n      tag_291\n        /* \"#utility.yul\":14346:14352   */\n      dup6\n        /* \"#utility.yul\":14339:14344   */\n      dup3\n        /* \"#utility.yul\":14286:14353   */\n      tag_124\n      jump\t// in\n    tag_291:\n        /* \"#utility.yul\":14280:14284   */\n      dup7\n        /* \"#utility.yul\":14273:14354   */\n      sstore\n        /* \"#utility.yul\":14142:14364   */\n      pop\n        /* \"#utility.yul\":13478:14364   */\n      jump(tag_288)\n        /* \"#utility.yul\":13508:14125   */\n    tag_289:\n        /* \"#utility.yul\":13560:13564   */\n      0x1f\n        /* \"#utility.yul\":13556:13565   */\n      not\n        /* \"#utility.yul\":13548:13554   */\n      dup5\n        /* \"#utility.yul\":13544:13566   */\n      and\n        /* \"#utility.yul\":13594:13630   */\n      tag_292\n        /* \"#utility.yul\":13625:13629   */\n      dup7\n        /* \"#utility.yul\":13594:13630   */\n      tag_110\n      jump\t// in\n    tag_292:\n        /* \"#utility.yul\":13652:13653   */\n      0x00\n        /* \"#utility.yul\":13666:13874   */\n    tag_293:\n        /* \"#utility.yul\":13680:13687   */\n      dup3\n        /* \"#utility.yul\":13677:13678   */\n      dup2\n        /* \"#utility.yul\":13674:13688   */\n      lt\n        /* \"#utility.yul\":13666:13874   */\n      iszero\n      tag_295\n      jumpi\n        /* \"#utility.yul\":13759:13768   */\n      dup5\n        /* \"#utility.yul\":13754:13757   */\n      dup10\n        /* \"#utility.yul\":13750:13769   */\n      add\n        /* \"#utility.yul\":13744:13770   */\n      mload\n        /* \"#utility.yul\":13736:13742   */\n      dup3\n        /* \"#utility.yul\":13729:13771   */\n      sstore\n        /* \"#utility.yul\":13810:13811   */\n      0x01\n        /* \"#utility.yul\":13802:13808   */\n      dup3\n        /* \"#utility.yul\":13798:13812   */\n      add\n        /* \"#utility.yul\":13788:13812   */\n      swap2\n      pop\n        /* \"#utility.yul\":13857:13859   */\n      0x20\n        /* \"#utility.yul\":13846:13855   */\n      dup6\n        /* \"#utility.yul\":13842:13860   */\n      add\n        /* \"#utility.yul\":13829:13860   */\n      swap5\n      pop\n        /* \"#utility.yul\":13703:13707   */\n      0x20\n        /* \"#utility.yul\":13700:13701   */\n      dup2\n        /* \"#utility.yul\":13696:13708   */\n      add\n        /* \"#utility.yul\":13691:13708   */\n      swap1\n      pop\n        /* \"#utility.yul\":13666:13874   */\n      jump(tag_293)\n    tag_295:\n        /* \"#utility.yul\":13902:13908   */\n      dup7\n        /* \"#utility.yul\":13893:13900   */\n      dup4\n        /* \"#utility.yul\":13890:13909   */\n      lt\n        /* \"#utility.yul\":13887:14066   */\n      iszero\n      tag_296\n      jumpi\n        /* \"#utility.yul\":13960:13969   */\n      dup5\n        /* \"#utility.yul\":13955:13958   */\n      dup10\n        /* \"#utility.yul\":13951:13970   */\n      add\n        /* \"#utility.yul\":13945:13971   */\n      mload\n        /* \"#utility.yul\":14003:14051   */\n      tag_297\n        /* \"#utility.yul\":14045:14049   */\n      0x1f\n        /* \"#utility.yul\":14037:14043   */\n      dup10\n        /* \"#utility.yul\":14033:14050   */\n      and\n        /* \"#utility.yul\":14022:14031   */\n      dup3\n        /* \"#utility.yul\":14003:14051   */\n      tag_123\n      jump\t// in\n    tag_297:\n        /* \"#utility.yul\":13995:14001   */\n      dup4\n        /* \"#utility.yul\":13988:14052   */\n      sstore\n        /* \"#utility.yul\":13910:14066   */\n      pop\n        /* \"#utility.yul\":13887:14066   */\n    tag_296:\n        /* \"#utility.yul\":14112:14113   */\n      0x01\n        /* \"#utility.yul\":14108:14109   */\n      0x02\n        /* \"#utility.yul\":14100:14106   */\n      dup9\n        /* \"#utility.yul\":14096:14110   */\n      mul\n        /* \"#utility.yul\":14092:14114   */\n      add\n        /* \"#utility.yul\":14086:14090   */\n      dup9\n        /* \"#utility.yul\":14079:14115   */\n      sstore\n        /* \"#utility.yul\":13515:14125   */\n      pop\n      pop\n      pop\n        /* \"#utility.yul\":13478:14364   */\n    tag_288:\n      pop\n        /* \"#utility.yul\":13070:14370   */\n      pop\n      pop\n      pop\n        /* \"#utility.yul\":12980:14370   */\n      pop\n      pop\n      jump\t// out\n        /* \"#utility.yul\":14376:14492   */\n    tag_125:\n        /* \"#utility.yul\":14427:14431   */\n      0x00\n        /* \"#utility.yul\":14450:14453   */\n      dup2\n        /* \"#utility.yul\":14442:14453   */\n      swap1\n      pop\n        /* \"#utility.yul\":14480:14484   */\n      0x20\n        /* \"#utility.yul\":14475:14478   */\n      dup3\n        /* \"#utility.yul\":14471:14485   */\n      add\n        /* \"#utility.yul\":14463:14485   */\n      swap1\n      pop\n        /* \"#utility.yul\":14376:14492   */\n      swap2\n      swap1\n      pop\n      jump\t// out\n        /* \"#utility.yul\":14498:14652   */\n    tag_126:\n        /* \"#utility.yul\":14541:14552   */\n      0x00\n        /* \"#utility.yul\":14577:14606   */\n      tag_300\n        /* \"#utility.yul\":14601:14604   */\n      dup3\n        /* \"#utility.yul\":14595:14605   */\n      mload\n        /* \"#utility.yul\":14577:14606   */\n      tag_94\n      jump\t// in\n    tag_300:\n        /* \"#utility.yul\":14640:14645   */\n      dup1\n        /* \"#utility.yul\":14616:14645   */\n      swap2\n      pop\n        /* \"#utility.yul\":14553:14652   */\n      pop\n        /* \"#utility.yul\":14498:14652   */\n      swap2\n      swap1\n      pop\n      jump\t// out\n        /* \"#utility.yul\":14658:15252   */\n    tag_61:\n        /* \"#utility.yul\":14742:14747   */\n      0x00\n        /* \"#utility.yul\":14773:14811   */\n      tag_302\n        /* \"#utility.yul\":14805:14810   */\n      dup3\n        /* \"#utility.yul\":14773:14811   */\n      tag_103\n      jump\t// in\n    tag_302:\n        /* \"#utility.yul\":14836:14841   */\n      dup3\n        /* \"#utility.yul\":14863:14903   */\n      tag_303\n        /* \"#utility.yul\":14897:14902   */\n      dup5\n        /* \"#utility.yul\":14863:14903   */\n      tag_125\n      jump\t// in\n    tag_303:\n        /* \"#utility.yul\":14851:14903   */\n      swap1\n      pop\n        /* \"#utility.yul\":14922:14957   */\n      tag_304\n        /* \"#utility.yul\":14948:14956   */\n      dup2\n        /* \"#utility.yul\":14922:14957   */\n      tag_126\n      jump\t// in\n    tag_304:\n        /* \"#utility.yul\":14913:14957   */\n      swap3\n      pop\n        /* \"#utility.yul\":14981:14983   */\n      0x20\n        /* \"#utility.yul\":14973:14979   */\n      dup3\n        /* \"#utility.yul\":14970:14984   */\n      lt\n        /* \"#utility.yul\":14967:15245   */\n      iszero\n      tag_305\n      jumpi\n        /* \"#utility.yul\":15052:15221   */\n      tag_306\n        /* \"#utility.yul\":15137:15203   */\n      0xffffffffffffffffffffffffffffffffffffffffffffffffffffffffffffffff\n        /* \"#utility.yul\":15107:15113   */\n      dup4\n        /* \"#utility.yul\":15103:15105   */\n      0x20\n        /* \"#utility.yul\":15099:15114   */\n      sub\n        /* \"#utility.yul\":15096:15097   */\n      0x08\n        /* \"#utility.yul\":15092:15115   */\n      mul\n        /* \"#utility.yul\":15052:15221   */\n      tag_112\n      jump\t// in\n    tag_306:\n        /* \"#utility.yul\":15029:15034   */\n      dup4\n        /* \"#utility.yul\":15008:15235   */\n      and\n        /* \"#utility.yul\":14999:15235   */\n      swap3\n      pop\n        /* \"#utility.yul\":14967:15245   */\n    tag_305:\n        /* \"#utility.yul\":14748:15252   */\n      pop\n      pop\n        /* \"#utility.yul\":14658:15252   */\n      swap2\n      swap1\n      pop\n      jump\t// out\n        /* \"#utility.yul\":15258:15399   */\n    tag_127:\n        /* \"#utility.yul\":15307:15311   */\n      0x00\n        /* \"#utility.yul\":15330:15333   */\n      dup2\n        /* \"#utility.yul\":15322:15333   */\n      swap1\n      pop\n        /* \"#utility.yul\":15353:15356   */\n      dup2\n        /* \"#utility.yul\":15350:15351   */\n      0x00\n        /* \"#utility.yul\":15343:15357   */\n      mstore\n        /* \"#utility.yul\":15387:15391   */\n      0x20\n        /* \"#utility.yul\":15384:15385   */\n      0x00\n        /* \"#utility.yul\":15374:15392   */\n      keccak256\n        /* \"#utility.yul\":15366:15392   */\n      swap1\n      pop\n        /* \"#utility.yul\":15258:15399   */\n      swap2\n      swap1\n      pop\n      jump\t// out\n        /* \"#utility.yul\":15405:15948   */\n    tag_128:\n        /* \"#utility.yul\":15506:15508   */\n      0x1f\n        /* \"#utility.yul\":15501:15504   */\n      dup3\n        /* \"#utility.yul\":15498:15509   */\n      gt\n        /* \"#utility.yul\":15495:15941   */\n      iszero\n      tag_309\n      jumpi\n        /* \"#utility.yul\":15540:15578   */\n      tag_310\n        /* \"#utility.yul\":15572:15577   */\n      dup2\n        /* \"#utility.yul\":15540:15578   */\n      tag_127\n      jump\t// in\n    tag_310:\n        /* \"#utility.yul\":15624:15653   */\n      tag_311\n        /* \"#utility.yul\":15642:15652   */\n      dup5\n        /* \"#utility.yul\":15624:15653   */\n      tag_111\n      jump\t// in\n    tag_311:\n        /* \"#utility.yul\":15614:15622   */\n      dup2\n        /* \"#utility.yul\":15610:15654   */\n      add\n        /* \"#utility.yul\":15807:15809   */\n      0x20\n        /* \"#utility.yul\":15795:15805   */\n      dup6\n        /* \"#utility.yul\":15792:15810   */\n      lt\n        /* \"#utility.yul\":15789:15838   */\n      iszero\n      tag_312\n      jumpi\n        /* \"#utility.yul\":15828:15836   */\n      dup2\n        /* \"#utility.yul\":15813:15836   */\n      swap1\n      pop\n        /* \"#utility.yul\":15789:15838   */\n    tag_312:\n        /* \"#utility.yul\":15851:15931   */\n      tag_313\n        /* \"#utility.yul\":15907:15929   */\n      tag_314\n        /* \"#utility.yul\":15925:15928   */\n      dup6\n        /* \"#utility.yul\":15907:15929   */\n      tag_111\n      jump\t// in\n    tag_314:\n        /* \"#utility.yul\":15897:15905   */\n      dup4\n        /* \"#utility.yul\":15893:15930   */\n      add\n        /* \"#utility.yul\":15880:15891   */\n      dup3\n        /* \"#utility.yul\":15851:15931   */\n      tag_120\n      jump\t// in\n    tag_313:\n        /* \"#utility.yul\":15510:15941   */\n      pop\n      pop\n        /* \"#utility.yul\":15495:15941   */\n    tag_309:\n        /* \"#utility.yul\":15405:15948   */\n      pop\n      pop\n      pop\n      jump\t// out\n        /* \"#utility.yul\":15954:17349   */\n    tag_71:\n        /* \"#utility.yul\":16071:16108   */\n      tag_316\n        /* \"#utility.yul\":16104:16107   */\n      dup3\n        /* \"#utility.yul\":16071:16108   */\n      tag_74\n      jump\t// in\n    tag_316:\n        /* \"#utility.yul\":16173:16191   */\n      0xffffffffffffffff\n        /* \"#utility.yul\":16165:16171   */\n      dup2\n        /* \"#utility.yul\":16162:16192   */\n      gt\n        /* \"#utility.yul\":16159:16215   */\n      iszero\n      tag_317\n      jumpi\n        /* \"#utility.yul\":16195:16213   */\n      tag_318\n      tag_84\n      jump\t// in\n    tag_318:\n        /* \"#utility.yul\":16159:16215   */\n    tag_317:\n        /* \"#utility.yul\":16239:16277   */\n      tag_319\n        /* \"#utility.yul\":16271:16275   */\n      dup3\n        /* \"#utility.yul\":16265:16276   */\n      sload\n        /* \"#utility.yul\":16239:16277   */\n      tag_51\n      jump\t// in\n    tag_319:\n        /* \"#utility.yul\":16324:16391   */\n      tag_320\n        /* \"#utility.yul\":16384:16390   */\n      dup3\n        /* \"#utility.yul\":16376:16382   */\n      dup3\n        /* \"#utility.yul\":16370:16374   */\n      dup6\n        /* \"#utility.yul\":16324:16391   */\n      tag_128\n      jump\t// in\n    tag_320:\n        /* \"#utility.yul\":16418:16419   */\n      0x00\n        /* \"#utility.yul\":16442:16446   */\n      0x20\n        /* \"#utility.yul\":16429:16446   */\n      swap1\n      pop\n        /* \"#utility.yul\":16474:16476   */\n      0x1f\n        /* \"#utility.yul\":16466:16472   */\n      dup4\n        /* \"#utility.yul\":16463:16477   */\n      gt\n        /* \"#utility.yul\":16491:16492   */\n      0x01\n        /* \"#utility.yul\":16486:17104   */\n      dup2\n      eq\n      tag_322\n      jumpi\n        /* \"#utility.yul\":17148:17149   */\n      0x00\n        /* \"#utility.yul\":17165:17171   */\n      dup5\n        /* \"#utility.yul\":17162:17239   */\n      iszero\n      tag_323\n      jumpi\n        /* \"#utility.yul\":17214:17223   */\n      dup3\n        /* \"#utility.yul\":17209:17212   */\n      dup8\n        /* \"#utility.yul\":17205:17224   */\n      add\n        /* \"#utility.yul\":17199:17225   */\n      mload\n        /* \"#utility.yul\":17190:17225   */\n      swap1\n      pop\n        /* \"#utility.yul\":17162:17239   */\n    tag_323:\n        /* \"#utility.yul\":17265:17332   */\n      tag_324\n        /* \"#utility.yul\":17325:17331   */\n      dup6\n        /* \"#utility.yul\":17318:17323   */\n      dup3\n        /* \"#utility.yul\":17265:17332   */\n      tag_124\n      jump\t// in\n    tag_324:\n        /* \"#utility.yul\":17259:17263   */\n      dup7\n        /* \"#utility.yul\":17252:17333   */\n      sstore\n        /* \"#utility.yul\":17121:17343   */\n      pop\n        /* \"#utility.yul\":16456:17343   */\n      jump(tag_321)\n        /* \"#utility.yul\":16486:17104   */\n    tag_322:\n        /* \"#utility.yul\":16538:16542   */\n      0x1f\n        /* \"#utility.yul\":16534:16543   */\n      not\n        /* \"#utility.yul\":16526:16532   */\n      dup5\n        /* \"#utility.yul\":16522:16544   */\n      and\n        /* \"#utility.yul\":16572:16609   */\n      tag_325\n        /* \"#utility.yul\":16604:16608   */\n      dup7\n        /* \"#utility.yul\":16572:16609   */\n      tag_127\n      jump\t// in\n    tag_325:\n        /* \"#utility.yul\":16631:16632   */\n      0x00\n        /* \"#utility.yul\":16645:16853   */\n    tag_326:\n        /* \"#utility.yul\":16659:16666   */\n      dup3\n        /* \"#utility.yul\":16656:16657   */\n      dup2\n        /* \"#utility.yul\":16653:16667   */\n      lt\n        /* \"#utility.yul\":16645:16853   */\n      iszero\n      tag_328\n      jumpi\n        /* \"#utility.yul\":16738:16747   */\n      dup5\n        /* \"#utility.yul\":16733:16736   */\n      dup10\n        /* \"#utility.yul\":16729:16748   */\n      add\n        /* \"#utility.yul\":16723:16749   */\n      mload\n        /* \"#utility.yul\":16715:16721   */\n      dup3\n        /* \"#utility.yul\":16708:16750   */\n      sstore\n        /* \"#utility.yul\":16789:16790   */\n      0x01\n        /* \"#utility.yul\":16781:16787   */\n      dup3\n        /* \"#utility.yul\":16777:16791   */\n      add\n        /* \"#utility.yul\":16767:16791   */\n      swap2\n      pop\n        /* \"#utility.yul\":16836:16838   */\n      0x20\n        /* \"#utility.yul\":16825:16834   */\n      dup6\n        /* \"#utility.yul\":16821:16839   */\n      add\n        /* \"#utility.yul\":16808:16839   */\n      swap5\n      pop\n        /* \"#utility.yul\":16682:16686   */\n      0x20\n        /* \"#utility.yul\":16679:16680   */\n      dup2\n        /* \"#utility.yul\":16675:16687   */\n      add\n        /* \"#utility.yul\":16670:16687   */\n      swap1\n      pop\n        /* \"#utility.yul\":16645:16853   */\n      jump(tag_326)\n    tag_328:\n        /* \"#utility.yul\":16881:16887   */\n      dup7\n        /* \"#utility.yul\":16872:16879   */\n      dup4\n        /* \"#utility.yul\":16869:16888   */\n      lt\n        /* \"#utility.yul\":16866:17045   */\n      iszero\n      tag_329\n      jumpi\n        /* \"#utility.yul\":16939:16948   */\n      dup5\n        /* \"#utility.yul\":16934:16937   */\n      dup10\n        /* \"#utility.yul\":16930:16949   */\n      add\n        /* \"#utility.yul\":16924:16950   */\n      mload\n        /* \"#utility.yul\":16982:17030   */\n      tag_330\n        /* \"#utility.yul\":17024:17028   */\n      0x1f\n        /* \"#utility.yul\":17016:17022   */\n      dup10\n        /* \"#utility.yul\":17012:17029   */\n      and\n        /* \"#utility.yul\":17001:17010   */\n      dup3\n        /* \"#utility.yul\":16982:17030   */\n      tag_123\n      jump\t// in\n    tag_330:\n        /* \"#utility.yul\":16974:16980   */\n      dup4\n        /* \"#utility.yul\":16967:17031   */\n      sstore\n        /* \"#utility.yul\":16889:17045   */\n      pop\n        /* \"#utility.yul\":16866:17045   */\n    tag_329:\n        /* \"#utility.yul\":17091:17092   */\n      0x01\n        /* \"#utility.yul\":17087:17088   */\n      0x02\n        /* \"#utility.yul\":17079:17085   */\n      dup9\n        /* \"#utility.yul\":17075:17089   */\n      mul\n        /* \"#utility.yul\":17071:17093   */\n      add\n        /* \"#utility.yul\":17065:17069   */\n      dup9\n        /* \"#utility.yul\":17058:17094   */\n      sstore\n        /* \"#utility.yul\":16493:17104   */\n      pop\n      pop\n      pop\n        /* \"#utility.yul\":16456:17343   */\n    tag_321:\n      pop\n        /* \"#utility.yul\":16046:17349   */\n      pop\n      pop\n      pop\n        /* \"#utility.yul\":15954:17349   */\n      pop\n      pop\n      jump\t// out\n\n    auxdata: 0xa26469706673582212204dbd5e13ba24da34a51b8ebf3a828203686f0f5610f1507d49ca790041a45dbb64736f6c634300081a0033\n}\n",
				"bytecode": {
					"linkReferences": {},
					"object": "6080604052348015600e575f80fd5b50610d638061001c5f395ff3fe608060405234801561000f575f80fd5b5060043610610091575f3560e01c806363595b711161006457806363595b711461011b57806382c1a7d1146101375780639371fdc514610155578063b02b6e4b14610173578063e36b5fb51461018f57610091565b80632deb124b1461009557806345f55744146100b3578063482aff21146100cf5780635fc94c9a146100ff575b5f80fd5b61009d6101ad565b6040516100aa919061044a565b60405180910390f35b6100cd60048036038101906100c891906105a7565b610239565b005b6100e960048036038101906100e4919061068c565b61024c565b6040516100f691906106eb565b60405180910390f35b61011960048036038101906101149190610739565b610263565b005b610135600480360381019061013091906107be565b61027e565b005b61013f6102c1565b60405161014c919061083b565b60405180910390f35b61015d61034d565b60405161016a919061086a565b60405180910390f35b61018d6004803603810190610188919061068c565b610372565b005b6101976103c5565b6040516101a4919061089b565b60405180910390f35b600180546101ba906108e1565b80601f01602080910402602001604051908101604052809291908181526020018280546101e6906108e1565b80156102315780601f1061020857610100808354040283529160200191610231565b820191905f5260205f20905b81548152906001019060200180831161021457829003601f168201915b505050505081565b80600290816102489190610aae565b5050565b5f808261025890610ba0565b905080915050919050565b805f806101000a81548160ff02191690831515021790555050565b805f60016101000a81548173ffffffffffffffffffffffffffffffffffffffff021916908373ffffffffffffffffffffffffffffffffffffffff16021790555050565b600280546102ce906108e1565b80601f01602080910402602001604051908101604052809291908181526020018280546102fa906108e1565b80156103455780601f1061031c57610100808354040283529160200191610345565b820191905f5260205f20905b81548152906001019060200180831161032857829003601f168201915b505050505081565b5f60019054906101000a900473ffffffffffffffffffffffffffffffffffffffff1681565b335f60016101000a81548173ffffffffffffffffffffffffffffffffffffffff021916908373ffffffffffffffffffffffffffffffffffffffff16021790555080600190816103c19190610c5e565b5050565b5f600280546103d3906108e1565b9050905090565b5f81519050919050565b5f82825260208201905092915050565b8281835e5f83830152505050565b5f601f19601f8301169050919050565b5f61041c826103da565b61042681856103e4565b93506104368185602086016103f4565b61043f81610402565b840191505092915050565b5f6020820190508181035f8301526104628184610412565b905092915050565b5f604051905090565b5f80fd5b5f80fd5b5f80fd5b5f80fd5b7f4e487b71000000000000000000000000000000000000000000000000000000005f52604160045260245ffd5b6104b982610402565b810181811067ffffffffffffffff821117156104d8576104d7610483565b5b80604052505050565b5f6104ea61046a565b90506104f682826104b0565b919050565b5f67ffffffffffffffff82111561051557610514610483565b5b61051e82610402565b9050602081019050919050565b828183375f83830152505050565b5f61054b610546846104fb565b6104e1565b9050828152602081018484840111156105675761056661047f565b5b61057284828561052b565b509392505050565b5f82601f83011261058e5761058d61047b565b5b813561059e848260208601610539565b91505092915050565b5f602082840312156105bc576105bb610473565b5b5f82013567ffffffffffffffff8111156105d9576105d8610477565b5b6105e58482850161057a565b91505092915050565b5f67ffffffffffffffff82111561060857610607610483565b5b61061182610402565b9050602081019050919050565b5f61063061062b846105ee565b6104e1565b90508281526020810184848401111561064c5761064b61047f565b5b61065784828561052b565b509392505050565b5f82601f8301126106735761067261047b565b5b813561068384826020860161061e565b91505092915050565b5f602082840312156106a1576106a0610473565b5b5f82013567ffffffffffffffff8111156106be576106bd610477565b5b6106ca8482850161065f565b91505092915050565b5f819050919050565b6106e5816106d3565b82525050565b5f6020820190506106fe5f8301846106dc565b92915050565b5f8115159050919050565b61071881610704565b8114610722575f80fd5b50565b5f813590506107338161070f565b92915050565b5f6020828403121561074e5761074d610473565b5b5f61075b84828501610725565b91505092915050565b5f73ffffffffffffffffffffffffffffffffffffffff82169050919050565b5f61078d82610764565b9050919050565b61079d81610783565b81146107a7575f80fd5b50565b5f813590506107b881610794565b92915050565b5f602082840312156107d3576107d2610473565b5b5f6107e0848285016107aa565b91505092915050565b5f81519050919050565b5f82825260208201905092915050565b5f61080d826107e9565b61081781856107f3565b93506108278185602086016103f4565b61083081610402565b840191505092915050565b5f6020820190508181035f8301526108538184610803565b905092915050565b61086481610783565b82525050565b5f60208201905061087d5f83018461085b565b92915050565b5f819050919050565b61089581610883565b82525050565b5f6020820190506108ae5f83018461088c565b92915050565b7f4e487b71000000000000000000000000000000000000000000000000000000005f52602260045260245ffd5b5f60028204905060018216806108f857607f821691505b60208210810361090b5761090a6108b4565b5b50919050565b5f819050815f5260205f209050919050565b5f6020601f8301049050919050565b5f82821b905092915050565b5f6008830261096d7fffffffffffffffffffffffffffffffffffffffffffffffffffffffffffffffff82610932565b6109778683610932565b95508019841693508086168417925050509392505050565b5f819050919050565b5f6109b26109ad6109a884610883565b61098f565b610883565b9050919050565b5f819050919050565b6109cb83610998565b6109df6109d7826109b9565b84845461093e565b825550505050565b5f90565b6109f36109e7565b6109fe8184846109c2565b505050565b5b81811015610a2157610a165f826109eb565b600181019050610a04565b5050565b601f821115610a6657610a3781610911565b610a4084610923565b81016020851015610a4f578190505b610a63610a5b85610923565b830182610a03565b50505b505050565b5f82821c905092915050565b5f610a865f1984600802610a6b565b1980831691505092915050565b5f610a9e8383610a77565b9150826002028217905092915050565b610ab7826107e9565b67ffffffffffffffff811115610ad057610acf610483565b5b610ada82546108e1565b610ae5828285610a25565b5f60209050601f831160018114610b16575f8415610b04578287015190505b610b0e8582610a93565b865550610b75565b601f198416610b2486610911565b5f5b82811015610b4b57848901518255600182019150602085019450602081019050610b26565b86831015610b685784890151610b64601f891682610a77565b8355505b6001600288020188555050505b505050505050565b5f819050602082019050919050565b5f610b9782516106d3565b80915050919050565b5f610baa826107e9565b82610bb484610b7d565b9050610bbf81610b8c565b92506020821015610bff57610bfa7fffffffffffffffffffffffffffffffffffffffffffffffffffffffffffffffff83602003600802610932565b831692505b5050919050565b5f819050815f5260205f209050919050565b601f821115610c5957610c2a81610c06565b610c3384610923565b81016020851015610c42578190505b610c56610c4e85610923565b830182610a03565b50505b505050565b610c67826103da565b67ffffffffffffffff811115610c8057610c7f610483565b5b610c8a82546108e1565b610c95828285610c18565b5f60209050601f831160018114610cc6575f8415610cb4578287015190505b610cbe8582610a93565b865550610d25565b601f198416610cd486610c06565b5f5b82811015610cfb57848901518255600182019150602085019450602081019050610cd6565b86831015610d185784890151610d14601f891682610a77565b8355505b6001600288020188555050505b50505050505056fea26469706673582212204dbd5e13ba24da34a51b8ebf3a828203686f0f5610f1507d49ca790041a45dbb64736f6c634300081a0033",
					"opcodes": "PUSH1 0x80 PUSH1 0x40 MSTORE CALLVALUE DUP1 ISZERO PUSH1 0xE JUMPI PUSH0 DUP1 REVERT JUMPDEST POP PUSH2 0xD63 DUP1 PUSH2 0x1C PUSH0 CODECOPY PUSH0 RETURN INVALID PUSH1 0x80 PUSH1 0x40 MSTORE CALLVALUE DUP1 ISZERO PUSH2 0xF JUMPI PUSH0 DUP1 REVERT JUMPDEST POP PUSH1 0x4 CALLDATASIZE LT PUSH2 0x91 JUMPI PUSH0 CALLDATALOAD PUSH1 0xE0 SHR DUP1 PUSH4 0x63595B71 GT PUSH2 0x64 JUMPI DUP1 PUSH4 0x63595B71 EQ PUSH2 0x11B JUMPI DUP1 PUSH4 0x82C1A7D1 EQ PUSH2 0x137 JUMPI DUP1 PUSH4 0x9371FDC5 EQ PUSH2 0x155 JUMPI DUP1 PUSH4 0xB02B6E4B EQ PUSH2 0x173 JUMPI DUP1 PUSH4 0xE36B5FB5 EQ PUSH2 0x18F JUMPI PUSH2 0x91 JUMP JUMPDEST DUP1 PUSH4 0x2DEB124B EQ PUSH2 0x95 JUMPI DUP1 PUSH4 0x45F55744 EQ PUSH2 0xB3 JUMPI DUP1 PUSH4 0x482AFF21 EQ PUSH2 0xCF JUMPI DUP1 PUSH4 0x5FC94C9A EQ PUSH2 0xFF JUMPI JUMPDEST PUSH0 DUP1 REVERT JUMPDEST PUSH2 0x9D PUSH2 0x1AD JUMP JUMPDEST PUSH1 0x40 MLOAD PUSH2 0xAA SWAP2 SWAP1 PUSH2 0x44A JUMP JUMPDEST PUSH1 0x40 MLOAD DUP1 SWAP2 SUB SWAP1 RETURN JUMPDEST PUSH2 0xCD PUSH1 0x4 DUP1 CALLDATASIZE SUB DUP2 ADD SWAP1 PUSH2 0xC8 SWAP2 SWAP1 PUSH2 0x5A7 JUMP JUMPDEST PUSH2 0x239 JUMP JUMPDEST STOP JUMPDEST PUSH2 0xE9 PUSH1 0x4 DUP1 CALLDATASIZE SUB DUP2 ADD SWAP1 PUSH2 0xE4 SWAP2 SWAP1 PUSH2 0x68C JUMP JUMPDEST PUSH2 0x24C JUMP JUMPDEST PUSH1 0x40 MLOAD PUSH2 0xF6 SWAP2 SWAP1 PUSH2 0x6EB JUMP JUMPDEST PUSH1 0x40 MLOAD DUP1 SWAP2 SUB SWAP1 RETURN JUMPDEST PUSH2 0x119 PUSH1 0x4 DUP1 CALLDATASIZE SUB DUP2 ADD SWAP1 PUSH2 0x114 SWAP2 SWAP1 PUSH2 0x739 JUMP JUMPDEST PUSH2 0x263 JUMP JUMPDEST STOP JUMPDEST PUSH2 0x135 PUSH1 0x4 DUP1 CALLDATASIZE SUB DUP2 ADD SWAP1 PUSH2 0x130 SWAP2 SWAP1 PUSH2 0x7BE JUMP JUMPDEST PUSH2 0x27E JUMP JUMPDEST STOP JUMPDEST PUSH2 0x13F PUSH2 0x2C1 JUMP JUMPDEST PUSH1 0x40 MLOAD PUSH2 0x14C SWAP2 SWAP1 PUSH2 0x83B JUMP JUMPDEST PUSH1 0x40 MLOAD DUP1 SWAP2 SUB SWAP1 RETURN JUMPDEST PUSH2 0x15D PUSH2 0x34D JUMP JUMPDEST PUSH1 0x40 MLOAD PUSH2 0x16A SWAP2 SWAP1 PUSH2 0x86A JUMP JUMPDEST PUSH1 0x40 MLOAD DUP1 SWAP2 SUB SWAP1 RETURN JUMPDEST PUSH2 0x18D PUSH1 0x4 DUP1 CALLDATASIZE SUB DUP2 ADD SWAP1 PUSH2 0x188 SWAP2 SWAP1 PUSH2 0x68C JUMP JUMPDEST PUSH2 0x372 JUMP JUMPDEST STOP JUMPDEST PUSH2 0x197 PUSH2 0x3C5 JUMP JUMPDEST PUSH1 0x40 MLOAD PUSH2 0x1A4 SWAP2 SWAP1 PUSH2 0x89B JUMP JUMPDEST PUSH1 0x40 MLOAD DUP1 SWAP2 SUB SWAP1 RETURN JUMPDEST PUSH1 0x1 DUP1 SLOAD PUSH2 0x1BA SWAP1 PUSH2 0x8E1 JUMP JUMPDEST DUP1 PUSH1 0x1F ADD PUSH1 0x20 DUP1 SWAP2 DIV MUL PUSH1 0x20 ADD PUSH1 0x40 MLOAD SWAP1 DUP2 ADD PUSH1 0x40 MSTORE DUP1 SWAP3 SWAP2 SWAP1 DUP2 DUP2 MSTORE PUSH1 0x20 ADD DUP3 DUP1 SLOAD PUSH2 0x1E6 SWAP1 PUSH2 0x8E1 JUMP JUMPDEST DUP1 ISZERO PUSH2 0x231 JUMPI DUP1 PUSH1 0x1F LT PUSH2 0x208 JUMPI PUSH2 0x100 DUP1 DUP4 SLOAD DIV MUL DUP4 MSTORE SWAP2 PUSH1 0x20 ADD SWAP2 PUSH2 0x231 JUMP JUMPDEST DUP3 ADD SWAP2 SWAP1 PUSH0 MSTORE PUSH1 0x20 PUSH0 KECCAK256 SWAP1 JUMPDEST DUP2 SLOAD DUP2 MSTORE SWAP1 PUSH1 0x1 ADD SWAP1 PUSH1 0x20 ADD DUP1 DUP4 GT PUSH2 0x214 JUMPI DUP3 SWAP1 SUB PUSH1 0x1F AND DUP3 ADD SWAP2 JUMPDEST POP POP POP POP POP DUP2 JUMP JUMPDEST DUP1 PUSH1 0x2 SWAP1 DUP2 PUSH2 0x248 SWAP2 SWAP1 PUSH2 0xAAE JUMP JUMPDEST POP POP JUMP JUMPDEST PUSH0 DUP1 DUP3 PUSH2 0x258 SWAP1 PUSH2 0xBA0 JUMP JUMPDEST SWAP1 POP DUP1 SWAP2 POP POP SWAP2 SWAP1 POP JUMP JUMPDEST DUP1 PUSH0 DUP1 PUSH2 0x100 EXP DUP2 SLOAD DUP2 PUSH1 0xFF MUL NOT AND SWAP1 DUP4 ISZERO ISZERO MUL OR SWAP1 SSTORE POP POP JUMP JUMPDEST DUP1 PUSH0 PUSH1 0x1 PUSH2 0x100 EXP DUP2 SLOAD DUP2 PUSH20 0xFFFFFFFFFFFFFFFFFFFFFFFFFFFFFFFFFFFFFFFF MUL NOT AND SWAP1 DUP4 PUSH20 0xFFFFFFFFFFFFFFFFFFFFFFFFFFFFFFFFFFFFFFFF AND MUL OR SWAP1 SSTORE POP POP JUMP JUMPDEST PUSH1 0x2 DUP1 SLOAD PUSH2 0x2CE SWAP1 PUSH2 0x8E1 JUMP JUMPDEST DUP1 PUSH1 0x1F ADD PUSH1 0x20 DUP1 SWAP2 DIV MUL PUSH1 0x20 ADD PUSH1 0x40 MLOAD SWAP1 DUP2 ADD PUSH1 0x40 MSTORE DUP1 SWAP3 SWAP2 SWAP1 DUP2 DUP2 MSTORE PUSH1 0x20 ADD DUP3 DUP1 SLOAD PUSH2 0x2FA SWAP1 PUSH2 0x8E1 JUMP JUMPDEST DUP1 ISZERO PUSH2 0x345 JUMPI DUP1 PUSH1 0x1F LT PUSH2 0x31C JUMPI PUSH2 0x100 DUP1 DUP4 SLOAD DIV MUL DUP4 MSTORE SWAP2 PUSH1 0x20 ADD SWAP2 PUSH2 0x345 JUMP JUMPDEST DUP3 ADD SWAP2 SWAP1 PUSH0 MSTORE PUSH1 0x20 PUSH0 KECCAK256 SWAP1 JUMPDEST DUP2 SLOAD DUP2 MSTORE SWAP1 PUSH1 0x1 ADD SWAP1 PUSH1 0x20 ADD DUP1 DUP4 GT PUSH2 0x328 JUMPI DUP3 SWAP1 SUB PUSH1 0x1F AND DUP3 ADD SWAP2 JUMPDEST POP POP POP POP POP DUP2 JUMP JUMPDEST PUSH0 PUSH1 0x1 SWAP1 SLOAD SWAP1 PUSH2 0x100 EXP SWAP1 DIV PUSH20 0xFFFFFFFFFFFFFFFFFFFFFFFFFFFFFFFFFFFFFFFF AND DUP2 JUMP JUMPDEST CALLER PUSH0 PUSH1 0x1 PUSH2 0x100 EXP DUP2 SLOAD DUP2 PUSH20 0xFFFFFFFFFFFFFFFFFFFFFFFFFFFFFFFFFFFFFFFF MUL NOT AND SWAP1 DUP4 PUSH20 0xFFFFFFFFFFFFFFFFFFFFFFFFFFFFFFFFFFFFFFFF AND MUL OR SWAP1 SSTORE POP DUP1 PUSH1 0x1 SWAP1 DUP2 PUSH2 0x3C1 SWAP2 SWAP1 PUSH2 0xC5E JUMP JUMPDEST POP POP JUMP JUMPDEST PUSH0 PUSH1 0x2 DUP1 SLOAD PUSH2 0x3D3 SWAP1 PUSH2 0x8E1 JUMP JUMPDEST SWAP1 POP SWAP1 POP SWAP1 JUMP JUMPDEST PUSH0 DUP2 MLOAD SWAP1 POP SWAP2 SWAP1 POP JUMP JUMPDEST PUSH0 DUP3 DUP3 MSTORE PUSH1 0x20 DUP3 ADD SWAP1 POP SWAP3 SWAP2 POP POP JUMP JUMPDEST DUP3 DUP2 DUP4 MCOPY PUSH0 DUP4 DUP4 ADD MSTORE POP POP POP JUMP JUMPDEST PUSH0 PUSH1 0x1F NOT PUSH1 0x1F DUP4 ADD AND SWAP1 POP SWAP2 SWAP1 POP JUMP JUMPDEST PUSH0 PUSH2 0x41C DUP3 PUSH2 0x3DA JUMP JUMPDEST PUSH2 0x426 DUP2 DUP6 PUSH2 0x3E4 JUMP JUMPDEST SWAP4 POP PUSH2 0x436 DUP2 DUP6 PUSH1 0x20 DUP7 ADD PUSH2 0x3F4 JUMP JUMPDEST PUSH2 0x43F DUP2 PUSH2 0x402 JUMP JUMPDEST DUP5 ADD SWAP2 POP POP SWAP3 SWAP2 POP POP JUMP JUMPDEST PUSH0 PUSH1 0x20 DUP3 ADD SWAP1 POP DUP2 DUP2 SUB PUSH0 DUP4 ADD MSTORE PUSH2 0x462 DUP2 DUP5 PUSH2 0x412 JUMP JUMPDEST SWAP1 POP SWAP3 SWAP2 POP POP JUMP JUMPDEST PUSH0 PUSH1 0x40 MLOAD SWAP1 POP SWAP1 JUMP JUMPDEST PUSH0 DUP1 REVERT JUMPDEST PUSH0 DUP1 REVERT JUMPDEST PUSH0 DUP1 REVERT JUMPDEST PUSH0 DUP1 REVERT JUMPDEST PUSH32 0x4E487B7100000000000000000000000000000000000000000000000000000000 PUSH0 MSTORE PUSH1 0x41 PUSH1 0x4 MSTORE PUSH1 0x24 PUSH0 REVERT JUMPDEST PUSH2 0x4B9 DUP3 PUSH2 0x402 JUMP JUMPDEST DUP2 ADD DUP2 DUP2 LT PUSH8 0xFFFFFFFFFFFFFFFF DUP3 GT OR ISZERO PUSH2 0x4D8 JUMPI PUSH2 0x4D7 PUSH2 0x483 JUMP JUMPDEST JUMPDEST DUP1 PUSH1 0x40 MSTORE POP POP POP JUMP JUMPDEST PUSH0 PUSH2 0x4EA PUSH2 0x46A JUMP JUMPDEST SWAP1 POP PUSH2 0x4F6 DUP3 DUP3 PUSH2 0x4B0 JUMP JUMPDEST SWAP2 SWAP1 POP JUMP JUMPDEST PUSH0 PUSH8 0xFFFFFFFFFFFFFFFF DUP3 GT ISZERO PUSH2 0x515 JUMPI PUSH2 0x514 PUSH2 0x483 JUMP JUMPDEST JUMPDEST PUSH2 0x51E DUP3 PUSH2 0x402 JUMP JUMPDEST SWAP1 POP PUSH1 0x20 DUP2 ADD SWAP1 POP SWAP2 SWAP1 POP JUMP JUMPDEST DUP3 DUP2 DUP4 CALLDATACOPY PUSH0 DUP4 DUP4 ADD MSTORE POP POP POP JUMP JUMPDEST PUSH0 PUSH2 0x54B PUSH2 0x546 DUP5 PUSH2 0x4FB JUMP JUMPDEST PUSH2 0x4E1 JUMP JUMPDEST SWAP1 POP DUP3 DUP2 MSTORE PUSH1 0x20 DUP2 ADD DUP5 DUP5 DUP5 ADD GT ISZERO PUSH2 0x567 JUMPI PUSH2 0x566 PUSH2 0x47F JUMP JUMPDEST JUMPDEST PUSH2 0x572 DUP5 DUP3 DUP6 PUSH2 0x52B JUMP JUMPDEST POP SWAP4 SWAP3 POP POP POP JUMP JUMPDEST PUSH0 DUP3 PUSH1 0x1F DUP4 ADD SLT PUSH2 0x58E JUMPI PUSH2 0x58D PUSH2 0x47B JUMP JUMPDEST JUMPDEST DUP2 CALLDATALOAD PUSH2 0x59E DUP5 DUP3 PUSH1 0x20 DUP7 ADD PUSH2 0x539 JUMP JUMPDEST SWAP2 POP POP SWAP3 SWAP2 POP POP JUMP JUMPDEST PUSH0 PUSH1 0x20 DUP3 DUP5 SUB SLT ISZERO PUSH2 0x5BC JUMPI PUSH2 0x5BB PUSH2 0x473 JUMP JUMPDEST JUMPDEST PUSH0 DUP3 ADD CALLDATALOAD PUSH8 0xFFFFFFFFFFFFFFFF DUP2 GT ISZERO PUSH2 0x5D9 JUMPI PUSH2 0x5D8 PUSH2 0x477 JUMP JUMPDEST JUMPDEST PUSH2 0x5E5 DUP5 DUP3 DUP6 ADD PUSH2 0x57A JUMP JUMPDEST SWAP2 POP POP SWAP3 SWAP2 POP POP JUMP JUMPDEST PUSH0 PUSH8 0xFFFFFFFFFFFFFFFF DUP3 GT ISZERO PUSH2 0x608 JUMPI PUSH2 0x607 PUSH2 0x483 JUMP JUMPDEST JUMPDEST PUSH2 0x611 DUP3 PUSH2 0x402 JUMP JUMPDEST SWAP1 POP PUSH1 0x20 DUP2 ADD SWAP1 POP SWAP2 SWAP1 POP JUMP JUMPDEST PUSH0 PUSH2 0x630 PUSH2 0x62B DUP5 PUSH2 0x5EE JUMP JUMPDEST PUSH2 0x4E1 JUMP JUMPDEST SWAP1 POP DUP3 DUP2 MSTORE PUSH1 0x20 DUP2 ADD DUP5 DUP5 DUP5 ADD GT ISZERO PUSH2 0x64C JUMPI PUSH2 0x64B PUSH2 0x47F JUMP JUMPDEST JUMPDEST PUSH2 0x657 DUP5 DUP3 DUP6 PUSH2 0x52B JUMP JUMPDEST POP SWAP4 SWAP3 POP POP POP JUMP JUMPDEST PUSH0 DUP3 PUSH1 0x1F DUP4 ADD SLT PUSH2 0x673 JUMPI PUSH2 0x672 PUSH2 0x47B JUMP JUMPDEST JUMPDEST DUP2 CALLDATALOAD PUSH2 0x683 DUP5 DUP3 PUSH1 0x20 DUP7 ADD PUSH2 0x61E JUMP JUMPDEST SWAP2 POP POP SWAP3 SWAP2 POP POP JUMP JUMPDEST PUSH0 PUSH1 0x20 DUP3 DUP5 SUB SLT ISZERO PUSH2 0x6A1 JUMPI PUSH2 0x6A0 PUSH2 0x473 JUMP JUMPDEST JUMPDEST PUSH0 DUP3 ADD CALLDATALOAD PUSH8 0xFFFFFFFFFFFFFFFF DUP2 GT ISZERO PUSH2 0x6BE JUMPI PUSH2 0x6BD PUSH2 0x477 JUMP JUMPDEST JUMPDEST PUSH2 0x6CA DUP5 DUP3 DUP6 ADD PUSH2 0x65F JUMP JUMPDEST SWAP2 POP POP SWAP3 SWAP2 POP POP JUMP JUMPDEST PUSH0 DUP2 SWAP1 POP SWAP2 SWAP1 POP JUMP JUMPDEST PUSH2 0x6E5 DUP2 PUSH2 0x6D3 JUMP JUMPDEST DUP3 MSTORE POP POP JUMP JUMPDEST PUSH0 PUSH1 0x20 DUP3 ADD SWAP1 POP PUSH2 0x6FE PUSH0 DUP4 ADD DUP5 PUSH2 0x6DC JUMP JUMPDEST SWAP3 SWAP2 POP POP JUMP JUMPDEST PUSH0 DUP2 ISZERO ISZERO SWAP1 POP SWAP2 SWAP1 POP JUMP JUMPDEST PUSH2 0x718 DUP2 PUSH2 0x704 JUMP JUMPDEST DUP2 EQ PUSH2 0x722 JUMPI PUSH0 DUP1 REVERT JUMPDEST POP JUMP JUMPDEST PUSH0 DUP2 CALLDATALOAD SWAP1 POP PUSH2 0x733 DUP2 PUSH2 0x70F JUMP JUMPDEST SWAP3 SWAP2 POP POP JUMP JUMPDEST PUSH0 PUSH1 0x20 DUP3 DUP5 SUB SLT ISZERO PUSH2 0x74E JUMPI PUSH2 0x74D PUSH2 0x473 JUMP JUMPDEST JUMPDEST PUSH0 PUSH2 0x75B DUP5 DUP3 DUP6 ADD PUSH2 0x725 JUMP JUMPDEST SWAP2 POP POP SWAP3 SWAP2 POP POP JUMP JUMPDEST PUSH0 PUSH20 0xFFFFFFFFFFFFFFFFFFFFFFFFFFFFFFFFFFFFFFFF DUP3 AND SWAP1 POP SWAP2 SWAP1 POP JUMP JUMPDEST PUSH0 PUSH2 0x78D DUP3 PUSH2 0x764 JUMP JUMPDEST SWAP1 POP SWAP2 SWAP1 POP JUMP JUMPDEST PUSH2 0x79D DUP2 PUSH2 0x783 JUMP JUMPDEST DUP2 EQ PUSH2 0x7A7 JUMPI PUSH0 DUP1 REVERT JUMPDEST POP JUMP JUMPDEST PUSH0 DUP2 CALLDATALOAD SWAP1 POP PUSH2 0x7B8 DUP2 PUSH2 0x794 JUMP JUMPDEST SWAP3 SWAP2 POP POP JUMP JUMPDEST PUSH0 PUSH1 0x20 DUP3 DUP5 SUB SLT ISZERO PUSH2 0x7D3 JUMPI PUSH2 0x7D2 PUSH2 0x473 JUMP JUMPDEST JUMPDEST PUSH0 PUSH2 0x7E0 DUP5 DUP3 DUP6 ADD PUSH2 0x7AA JUMP JUMPDEST SWAP2 POP POP SWAP3 SWAP2 POP POP JUMP JUMPDEST PUSH0 DUP2 MLOAD SWAP1 POP SWAP2 SWAP1 POP JUMP JUMPDEST PUSH0 DUP3 DUP3 MSTORE PUSH1 0x20 DUP3 ADD SWAP1 POP SWAP3 SWAP2 POP POP JUMP JUMPDEST PUSH0 PUSH2 0x80D DUP3 PUSH2 0x7E9 JUMP JUMPDEST PUSH2 0x817 DUP2 DUP6 PUSH2 0x7F3 JUMP JUMPDEST SWAP4 POP PUSH2 0x827 DUP2 DUP6 PUSH1 0x20 DUP7 ADD PUSH2 0x3F4 JUMP JUMPDEST PUSH2 0x830 DUP2 PUSH2 0x402 JUMP JUMPDEST DUP5 ADD SWAP2 POP POP SWAP3 SWAP2 POP POP JUMP JUMPDEST PUSH0 PUSH1 0x20 DUP3 ADD SWAP1 POP DUP2 DUP2 SUB PUSH0 DUP4 ADD MSTORE PUSH2 0x853 DUP2 DUP5 PUSH2 0x803 JUMP JUMPDEST SWAP1 POP SWAP3 SWAP2 POP POP JUMP JUMPDEST PUSH2 0x864 DUP2 PUSH2 0x783 JUMP JUMPDEST DUP3 MSTORE POP POP JUMP JUMPDEST PUSH0 PUSH1 0x20 DUP3 ADD SWAP1 POP PUSH2 0x87D PUSH0 DUP4 ADD DUP5 PUSH2 0x85B JUMP JUMPDEST SWAP3 SWAP2 POP POP JUMP JUMPDEST PUSH0 DUP2 SWAP1 POP SWAP2 SWAP1 POP JUMP JUMPDEST PUSH2 0x895 DUP2 PUSH2 0x883 JUMP JUMPDEST DUP3 MSTORE POP POP JUMP JUMPDEST PUSH0 PUSH1 0x20 DUP3 ADD SWAP1 POP PUSH2 0x8AE PUSH0 DUP4 ADD DUP5 PUSH2 0x88C JUMP JUMPDEST SWAP3 SWAP2 POP POP JUMP JUMPDEST PUSH32 0x4E487B7100000000000000000000000000000000000000000000000000000000 PUSH0 MSTORE PUSH1 0x22 PUSH1 0x4 MSTORE PUSH1 0x24 PUSH0 REVERT JUMPDEST PUSH0 PUSH1 0x2 DUP3 DIV SWAP1 POP PUSH1 0x1 DUP3 AND DUP1 PUSH2 0x8F8 JUMPI PUSH1 0x7F DUP3 AND SWAP2 POP JUMPDEST PUSH1 0x20 DUP3 LT DUP2 SUB PUSH2 0x90B JUMPI PUSH2 0x90A PUSH2 0x8B4 JUMP JUMPDEST JUMPDEST POP SWAP2 SWAP1 POP JUMP JUMPDEST PUSH0 DUP2 SWAP1 POP DUP2 PUSH0 MSTORE PUSH1 0x20 PUSH0 KECCAK256 SWAP1 POP SWAP2 SWAP1 POP JUMP JUMPDEST PUSH0 PUSH1 0x20 PUSH1 0x1F DUP4 ADD DIV SWAP1 POP SWAP2 SWAP1 POP JUMP JUMPDEST PUSH0 DUP3 DUP3 SHL SWAP1 POP SWAP3 SWAP2 POP POP JUMP JUMPDEST PUSH0 PUSH1 0x8 DUP4 MUL PUSH2 0x96D PUSH32 0xFFFFFFFFFFFFFFFFFFFFFFFFFFFFFFFFFFFFFFFFFFFFFFFFFFFFFFFFFFFFFFFF DUP3 PUSH2 0x932 JUMP JUMPDEST PUSH2 0x977 DUP7 DUP4 PUSH2 0x932 JUMP JUMPDEST SWAP6 POP DUP1 NOT DUP5 AND SWAP4 POP DUP1 DUP7 AND DUP5 OR SWAP3 POP POP POP SWAP4 SWAP3 POP POP POP JUMP JUMPDEST PUSH0 DUP2 SWAP1 POP SWAP2 SWAP1 POP JUMP JUMPDEST PUSH0 PUSH2 0x9B2 PUSH2 0x9AD PUSH2 0x9A8 DUP5 PUSH2 0x883 JUMP JUMPDEST PUSH2 0x98F JUMP JUMPDEST PUSH2 0x883 JUMP JUMPDEST SWAP1 POP SWAP2 SWAP1 POP JUMP JUMPDEST PUSH0 DUP2 SWAP1 POP SWAP2 SWAP1 POP JUMP JUMPDEST PUSH2 0x9CB DUP4 PUSH2 0x998 JUMP JUMPDEST PUSH2 0x9DF PUSH2 0x9D7 DUP3 PUSH2 0x9B9 JUMP JUMPDEST DUP5 DUP5 SLOAD PUSH2 0x93E JUMP JUMPDEST DUP3 SSTORE POP POP POP POP JUMP JUMPDEST PUSH0 SWAP1 JUMP JUMPDEST PUSH2 0x9F3 PUSH2 0x9E7 JUMP JUMPDEST PUSH2 0x9FE DUP2 DUP5 DUP5 PUSH2 0x9C2 JUMP JUMPDEST POP POP POP JUMP JUMPDEST JUMPDEST DUP2 DUP2 LT ISZERO PUSH2 0xA21 JUMPI PUSH2 0xA16 PUSH0 DUP3 PUSH2 0x9EB JUMP JUMPDEST PUSH1 0x1 DUP2 ADD SWAP1 POP PUSH2 0xA04 JUMP JUMPDEST POP POP JUMP JUMPDEST PUSH1 0x1F DUP3 GT ISZERO PUSH2 0xA66 JUMPI PUSH2 0xA37 DUP2 PUSH2 0x911 JUMP JUMPDEST PUSH2 0xA40 DUP5 PUSH2 0x923 JUMP JUMPDEST DUP2 ADD PUSH1 0x20 DUP6 LT ISZERO PUSH2 0xA4F JUMPI DUP2 SWAP1 POP JUMPDEST PUSH2 0xA63 PUSH2 0xA5B DUP6 PUSH2 0x923 JUMP JUMPDEST DUP4 ADD DUP3 PUSH2 0xA03 JUMP JUMPDEST POP POP JUMPDEST POP POP POP JUMP JUMPDEST PUSH0 DUP3 DUP3 SHR SWAP1 POP SWAP3 SWAP2 POP POP JUMP JUMPDEST PUSH0 PUSH2 0xA86 PUSH0 NOT DUP5 PUSH1 0x8 MUL PUSH2 0xA6B JUMP JUMPDEST NOT DUP1 DUP4 AND SWAP2 POP POP SWAP3 SWAP2 POP POP JUMP JUMPDEST PUSH0 PUSH2 0xA9E DUP4 DUP4 PUSH2 0xA77 JUMP JUMPDEST SWAP2 POP DUP3 PUSH1 0x2 MUL DUP3 OR SWAP1 POP SWAP3 SWAP2 POP POP JUMP JUMPDEST PUSH2 0xAB7 DUP3 PUSH2 0x7E9 JUMP JUMPDEST PUSH8 0xFFFFFFFFFFFFFFFF DUP2 GT ISZERO PUSH2 0xAD0 JUMPI PUSH2 0xACF PUSH2 0x483 JUMP JUMPDEST JUMPDEST PUSH2 0xADA DUP3 SLOAD PUSH2 0x8E1 JUMP JUMPDEST PUSH2 0xAE5 DUP3 DUP3 DUP6 PUSH2 0xA25 JUMP JUMPDEST PUSH0 PUSH1 0x20 SWAP1 POP PUSH1 0x1F DUP4 GT PUSH1 0x1 DUP2 EQ PUSH2 0xB16 JUMPI PUSH0 DUP5 ISZERO PUSH2 0xB04 JUMPI DUP3 DUP8 ADD MLOAD SWAP1 POP JUMPDEST PUSH2 0xB0E DUP6 DUP3 PUSH2 0xA93 JUMP JUMPDEST DUP7 SSTORE POP PUSH2 0xB75 JUMP JUMPDEST PUSH1 0x1F NOT DUP5 AND PUSH2 0xB24 DUP7 PUSH2 0x911 JUMP JUMPDEST PUSH0 JUMPDEST DUP3 DUP2 LT ISZERO PUSH2 0xB4B JUMPI DUP5 DUP10 ADD MLOAD DUP3 SSTORE PUSH1 0x1 DUP3 ADD SWAP2 POP PUSH1 0x20 DUP6 ADD SWAP5 POP PUSH1 0x20 DUP2 ADD SWAP1 POP PUSH2 0xB26 JUMP JUMPDEST DUP7 DUP4 LT ISZERO PUSH2 0xB68 JUMPI DUP5 DUP10 ADD MLOAD PUSH2 0xB64 PUSH1 0x1F DUP10 AND DUP3 PUSH2 0xA77 JUMP JUMPDEST DUP4 SSTORE POP JUMPDEST PUSH1 0x1 PUSH1 0x2 DUP9 MUL ADD DUP9 SSTORE POP POP POP JUMPDEST POP POP POP POP POP POP JUMP JUMPDEST PUSH0 DUP2 SWAP1 POP PUSH1 0x20 DUP3 ADD SWAP1 POP SWAP2 SWAP1 POP JUMP JUMPDEST PUSH0 PUSH2 0xB97 DUP3 MLOAD PUSH2 0x6D3 JUMP JUMPDEST DUP1 SWAP2 POP POP SWAP2 SWAP1 POP JUMP JUMPDEST PUSH0 PUSH2 0xBAA DUP3 PUSH2 0x7E9 JUMP JUMPDEST DUP3 PUSH2 0xBB4 DUP5 PUSH2 0xB7D JUMP JUMPDEST SWAP1 POP PUSH2 0xBBF DUP2 PUSH2 0xB8C JUMP JUMPDEST SWAP3 POP PUSH1 0x20 DUP3 LT ISZERO PUSH2 0xBFF JUMPI PUSH2 0xBFA PUSH32 0xFFFFFFFFFFFFFFFFFFFFFFFFFFFFFFFFFFFFFFFFFFFFFFFFFFFFFFFFFFFFFFFF DUP4 PUSH1 0x20 SUB PUSH1 0x8 MUL PUSH2 0x932 JUMP JUMPDEST DUP4 AND SWAP3 POP JUMPDEST POP POP SWAP2 SWAP1 POP JUMP JUMPDEST PUSH0 DUP2 SWAP1 POP DUP2 PUSH0 MSTORE PUSH1 0x20 PUSH0 KECCAK256 SWAP1 POP SWAP2 SWAP1 POP JUMP JUMPDEST PUSH1 0x1F DUP3 GT ISZERO PUSH2 0xC59 JUMPI PUSH2 0xC2A DUP2 PUSH2 0xC06 JUMP JUMPDEST PUSH2 0xC33 DUP5 PUSH2 0x923 JUMP JUMPDEST DUP2 ADD PUSH1 0x20 DUP6 LT ISZERO PUSH2 0xC42 JUMPI DUP2 SWAP1 POP JUMPDEST PUSH2 0xC56 PUSH2 0xC4E DUP6 PUSH2 0x923 JUMP JUMPDEST DUP4 ADD DUP3 PUSH2 0xA03 JUMP JUMPDEST POP POP JUMPDEST POP POP POP JUMP JUMPDEST PUSH2 0xC67 DUP3 PUSH2 0x3DA JUMP JUMPDEST PUSH8 0xFFFFFFFFFFFFFFFF DUP2 GT ISZERO PUSH2 0xC80 JUMPI PUSH2 0xC7F PUSH2 0x483 JUMP JUMPDEST JUMPDEST PUSH2 0xC8A DUP3 SLOAD PUSH2 0x8E1 JUMP JUMPDEST PUSH2 0xC95 DUP3 DUP3 DUP6 PUSH2 0xC18 JUMP JUMPDEST PUSH0 PUSH1 0x20 SWAP1 POP PUSH1 0x1F DUP4 GT PUSH1 0x1 DUP2 EQ PUSH2 0xCC6 JUMPI PUSH0 DUP5 ISZERO PUSH2 0xCB4 JUMPI DUP3 DUP8 ADD MLOAD SWAP1 POP JUMPDEST PUSH2 0xCBE DUP6 DUP3 PUSH2 0xA93 JUMP JUMPDEST DUP7 SSTORE POP PUSH2 0xD25 JUMP JUMPDEST PUSH1 0x1F NOT DUP5 AND PUSH2 0xCD4 DUP7 PUSH2 0xC06 JUMP JUMPDEST PUSH0 JUMPDEST DUP3 DUP2 LT ISZERO PUSH2 0xCFB JUMPI DUP5 DUP10 ADD MLOAD DUP3 SSTORE PUSH1 0x1 DUP3 ADD SWAP2 POP PUSH1 0x20 DUP6 ADD SWAP5 POP PUSH1 0x20 DUP2 ADD SWAP1 POP PUSH2 0xCD6 JUMP JUMPDEST DUP7 DUP4 LT ISZERO PUSH2 0xD18 JUMPI DUP5 DUP10 ADD MLOAD PUSH2 0xD14 PUSH1 0x1F DUP10 AND DUP3 PUSH2 0xA77 JUMP JUMPDEST DUP4 SSTORE POP JUMPDEST PUSH1 0x1 PUSH1 0x2 DUP9 MUL ADD DUP9 SSTORE POP POP POP JUMPDEST POP POP POP POP POP POP JUMP INVALID LOG2 PUSH5 0x6970667358 0x22 SLT KECCAK256 0x4D 0xBD MCOPY SGT 0xBA 0x24 0xDA CALLVALUE 0xA5 SHL DUP15 0xBF GASPRICE DUP3 DUP3 SUB PUSH9 0x6F0F5610F1507D49CA PUSH26 0x41A45DBB64736F6C634300081A003300000000000000000000 "
				},
				"gasEstimates": {
					"creation": {
						"codeDepositCost": "685400",
						"executionCost": "719",
						"totalCost": "686119"
					},
					"external": {
						"MeusBytes()": "infinite",
						"RegistrarEndereco(address)": "24765",
						"armazenarDados(bytes)": "infinite",
						"contaRegistrada()": "2602",
						"convertStringBytes(string)": "infinite",
						"mudarPermissao(bool)": "24740",
						"nome()": "infinite",
						"obterTamanhoDados()": "2652",
						"registrarMeuEndereco(string)": "infinite"
					}
				},
				"methodIdentifiers": {
					"MeusBytes()": "82c1a7d1",
					"RegistrarEndereco(address)": "63595b71",
					"armazenarDados(bytes)": "45f55744",
					"contaRegistrada()": "9371fdc5",
					"convertStringBytes(string)": "482aff21",
					"mudarPermissao(bool)": "5fc94c9a",
					"nome()": "2deb124b",
					"obterTamanhoDados()": "e36b5fb5",
					"registrarMeuEndereco(string)": "b02b6e4b"
				}
			},
			"storageLayout": {
				"storage": [
					{
						"astId": 3,
						"contract": "contracts/aula1_parte2/variaveis_p2.sol:ExemploVariavelP2",
						"label": "permissao",
						"offset": 0,
						"slot": "0",
						"type": "t_bool"
					},
					{
						"astId": 5,
						"contract": "contracts/aula1_parte2/variaveis_p2.sol:ExemploVariavelP2",
						"label": "contaRegistrada",
						"offset": 1,
						"slot": "0",
						"type": "t_address"
					},
					{
						"astId": 7,
						"contract": "contracts/aula1_parte2/variaveis_p2.sol:ExemploVariavelP2",
						"label": "nome",
						"offset": 0,
						"slot": "1",
						"type": "t_string_storage"
					},
					{
						"astId": 9,
						"contract": "contracts/aula1_parte2/variaveis_p2.sol:ExemploVariavelP2",
						"label": "MeusBytes",
						"offset": 0,
						"slot": "2",
						"type": "t_bytes_storage"
					}
				],
				"types": {
					"t_address": {
						"encoding": "inplace",
						"label": "address",
						"numberOfBytes": "20"
					},
					"t_bool": {
						"encoding": "inplace",
						"label": "bool",
						"numberOfBytes": "1"
					},
					"t_bytes_storage": {
						"encoding": "bytes",
						"label": "bytes",
						"numberOfBytes": "32"
					},
					"t_string_storage": {
						"encoding": "bytes",
						"label": "string",
						"numberOfBytes": "32"
					}
				}
			},
			"userdoc": {
				"kind": "user",
				"methods": {},
				"version": 1
			}
		}
	}
}